{
  "_format": "hh-sol-artifact-1",
  "contractName": "MockOnRampProvider",
  "sourceName": "contracts/mocks/MockOnRampProvider.sol",
  "abi": [
    {
      "inputs": [],
      "stateMutability": "nonpayable",
      "type": "constructor"
    },
    {
      "anonymous": false,
      "inputs": [
        {
          "indexed": true,
          "internalType": "address",
          "name": "previousOwner",
          "type": "address"
        },
        {
          "indexed": true,
          "internalType": "address",
          "name": "newOwner",
          "type": "address"
        }
      ],
      "name": "OwnershipTransferred",
      "type": "event"
    },
    {
      "anonymous": false,
      "inputs": [
        {
          "indexed": true,
          "internalType": "address",
          "name": "user",
          "type": "address"
        },
        {
          "indexed": true,
          "internalType": "address",
          "name": "stablecoin",
          "type": "address"
        },
        {
          "indexed": false,
          "internalType": "uint256",
          "name": "amount",
          "type": "uint256"
        },
        {
          "indexed": false,
          "internalType": "string",
          "name": "ref",
          "type": "string"
        }
      ],
      "name": "PaymentProcessed",
      "type": "event"
    },
    {
      "anonymous": false,
      "inputs": [
        {
          "indexed": true,
          "internalType": "address",
          "name": "user",
          "type": "address"
        },
        {
          "indexed": true,
          "internalType": "address",
          "name": "stablecoin",
          "type": "address"
        },
        {
          "indexed": false,
          "internalType": "uint256",
          "name": "amount",
          "type": "uint256"
        },
        {
          "indexed": false,
          "internalType": "string",
          "name": "ref",
          "type": "string"
        }
      ],
      "name": "PaymentReceived",
      "type": "event"
    },
    {
      "inputs": [
        {
          "internalType": "string",
          "name": "ref",
          "type": "string"
        }
      ],
      "name": "getPayment",
      "outputs": [
        {
          "components": [
            {
              "internalType": "address",
              "name": "user",
              "type": "address"
            },
            {
              "internalType": "address",
              "name": "stablecoin",
              "type": "address"
            },
            {
              "internalType": "uint256",
              "name": "amount",
              "type": "uint256"
            },
            {
              "internalType": "uint256",
              "name": "timestamp",
              "type": "uint256"
            },
            {
              "internalType": "bool",
              "name": "processed",
              "type": "bool"
            }
          ],
          "internalType": "struct MockOnRampProvider.PaymentInfo",
          "name": "",
          "type": "tuple"
        }
      ],
      "stateMutability": "view",
      "type": "function"
    },
    {
      "inputs": [
        {
          "internalType": "string",
          "name": "ref",
          "type": "string"
        }
      ],
      "name": "isPaymentProcessed",
      "outputs": [
        {
          "internalType": "bool",
          "name": "",
          "type": "bool"
        }
      ],
      "stateMutability": "view",
      "type": "function"
    },
    {
      "inputs": [],
      "name": "owner",
      "outputs": [
        {
          "internalType": "address",
          "name": "",
          "type": "address"
        }
      ],
      "stateMutability": "view",
      "type": "function"
    },
    {
      "inputs": [
        {
          "internalType": "string",
          "name": "",
          "type": "string"
        }
      ],
      "name": "payments",
      "outputs": [
        {
          "internalType": "address",
          "name": "user",
          "type": "address"
        },
        {
          "internalType": "address",
          "name": "stablecoin",
          "type": "address"
        },
        {
          "internalType": "uint256",
          "name": "amount",
          "type": "uint256"
        },
        {
          "internalType": "uint256",
          "name": "timestamp",
          "type": "uint256"
        },
        {
          "internalType": "bool",
          "name": "processed",
          "type": "bool"
        }
      ],
      "stateMutability": "view",
      "type": "function"
    },
    {
      "inputs": [
        {
          "internalType": "string",
          "name": "ref",
          "type": "string"
        }
      ],
      "name": "processPayment",
      "outputs": [],
      "stateMutability": "nonpayable",
      "type": "function"
    },
    {
      "inputs": [
        {
          "internalType": "string",
          "name": "",
          "type": "string"
        }
      ],
      "name": "processedPayments",
      "outputs": [
        {
          "internalType": "bool",
          "name": "",
          "type": "bool"
        }
      ],
      "stateMutability": "view",
      "type": "function"
    },
    {
      "inputs": [
        {
          "internalType": "address",
          "name": "user",
          "type": "address"
        },
        {
          "internalType": "address",
          "name": "stablecoin",
          "type": "address"
        },
        {
          "internalType": "uint256",
          "name": "amount",
          "type": "uint256"
        },
        {
          "internalType": "string",
          "name": "ref",
          "type": "string"
        }
      ],
      "name": "receivePayment",
      "outputs": [],
      "stateMutability": "nonpayable",
      "type": "function"
    },
    {
      "inputs": [],
      "name": "renounceOwnership",
      "outputs": [],
      "stateMutability": "nonpayable",
      "type": "function"
    },
    {
      "inputs": [
        {
          "internalType": "address",
          "name": "newOwner",
          "type": "address"
        }
      ],
      "name": "transferOwnership",
      "outputs": [],
      "stateMutability": "nonpayable",
      "type": "function"
    },
    {
      "inputs": [
        {
          "internalType": "uint256",
          "name": "amount",
          "type": "uint256"
        },
        {
          "internalType": "address",
          "name": "to",
          "type": "address"
        }
      ],
      "name": "withdrawETH",
      "outputs": [],
      "stateMutability": "nonpayable",
      "type": "function"
    },
    {
      "inputs": [
        {
          "internalType": "address",
          "name": "token",
          "type": "address"
        },
        {
          "internalType": "uint256",
          "name": "amount",
          "type": "uint256"
        },
        {
          "internalType": "address",
          "name": "to",
          "type": "address"
        }
      ],
      "name": "withdrawTokens",
      "outputs": [],
      "stateMutability": "nonpayable",
      "type": "function"
    },
    {
      "stateMutability": "payable",
      "type": "receive"
    }
  ],
  "bytecode": "0x6080806040523461005b5760008054336001600160a01b0319821681178355916001600160a01b03909116907f8be0079c531659141344cd1fd0a4f28419497f9722a3daafe3b4186f6b6457e09080a3610c9d90816100618239f35b600080fdfe6080604081815260049081361015610022575b505050361561002057600080fd5b005b600092833560e01c908163149f2e8814610933575083816336118b52146108da57508063715018a61461087d5780638da5cb5b146108555780639b931abf146108155780639bc5c5091461067b578063b7655d70146104ec578063c69207a31461040d578063dde29791146101e0578063f2fde38b1461011d5763f94687130361001257346101195760a092506100cf60206100bd36610a56565b81845193828580945193849201610abf565b81016002815203019020600180851b039283825416936001830154169260ff6002840154926003850154940154169381519586526020860152840152606083015215156080820152f35b8280fd5b509034610119576020366003190112610119576101386109d0565b90610141610ae2565b6001600160a01b0391821692831561018e57505082546001600160a01b0319811683178455167f8be0079c531659141344cd1fd0a4f28419497f9722a3daafe3b4186f6b6457e08380a380f35b906020608492519162461bcd60e51b8352820152602660248201527f4f776e61626c653a206e6577206f776e657220697320746865207a65726f206160448201526564647265737360d01b6064820152fd5b50919034610409576080366003190112610409576101fc6109d0565b906102056109ba565b9060443560643567ffffffffffffffff8111610405576102289036908401610987565b9092610232610ae2565b6001600160a01b039586169485156103c25786169586156103705783156103225791888861031c937f0da8e031922d6bdf36a83b26ef74cd487e4ec7945a6abf37b9b8cf1b194788fd979695610289851515610b3a565b835190610295826109e6565b8a8252602082018c815285830190898252606084019242845260808501968752808c8a8a519182376020818c81016002815203019020955116906bffffffffffffffffffffffff60a01b91828754161786556001860192511690825416179055516002830155516003820155019051151560ff801983541691161790555193849384610b86565b0390a380f35b885162461bcd60e51b8152602081840152602260248201527f4d6f636b4f6e52616d7050726f76696465723a20696e76616c696420616d6f756044820152611b9d60f21b6064820152608490fd5b885162461bcd60e51b8152602081840152602660248201527f4d6f636b4f6e52616d7050726f76696465723a20696e76616c696420737461626044820152653632b1b7b4b760d11b6064820152608490fd5b885162461bcd60e51b8152602081840181905260248201527f4d6f636b4f6e52616d7050726f76696465723a20696e76616c696420757365726044820152606490fd5b8580fd5b5080fd5b503461011957602036600319011261011957813567ffffffffffffffff81116104e85792602061044260a09536908601610987565b9260808551610450816109e6565b828152828582015282878201528260608201520152828451938492833781016002815203019020815191610483836109e6565b600180861b039384835416948585528060018501541660208601908152608060ff60028701549486890195865260038801549760608a019889520154169601951515865283519687525116602086015251908401525160608301525115156080820152f35b8380fd5b50903461011957602036600319011261011957803567ffffffffffffffff81116104e85761051d9036908301610987565b92610526610ae2565b610531841515610b3a565b80518483823760208186810160028152030190209360018060a01b0393848654161561062a5780860180549160ff83166105d157509161031c917fb5e51a9058e00792fede50f44125bb8bc3f068a8f877644c8a3b3d02c74f56e0959493600160ff198093161790556001845183878237602081858101848152030190209182541617905560028688541696600189015416970154925193849384610b86565b608490602086519162461bcd60e51b8352820152602d60248201527f4d6f636b4f6e52616d7050726f76696465723a207061796d656e7420616c726560448201526c18591e481c1c9bd8d95cdcd959609a1b6064820152fd5b608490602084519162461bcd60e51b8352820152602560248201527f4d6f636b4f6e52616d7050726f76696465723a207061796d656e74206e6f7420604482015264199bdd5b9960da1b6064820152fd5b5034610119576060366003190112610119576106956109d0565b6001600160a01b03604435818116939290849003610405576106b5610ae2565b168151906020938483019063a9059cbb60e01b82526024840152602435604484015260448352608083019267ffffffffffffffff818510818611176108025760c08201908111858210176108025785528584527f5361666545524332303a206c6f772d6c6576656c2063616c6c206661696c656460a0820152516107689392918891829182855af13d156107fa573d9161074e83610a3a565b9261075b87519485610a18565b83523d898885013e610bb4565b80518381159182156107d6575b5050905015610782578380f35b5162461bcd60e51b815291820152602a60248201527f5361666545524332303a204552433230206f7065726174696f6e20646964206e6044820152691bdd081cdd58d8d9595960b21b606482015260849150fd5b83809293500103126107f65782015180151581036107f657808338610775565b8480fd5b606091610bb4565b634e487b7160e01b895260418852602489fd5b8382346104095760209060ff6108408361082e36610a56565b81855193828580945193849201610abf565b81016001815203019020541690519015158152f35b838234610409578160031936011261040957905490516001600160a01b039091168152602090f35b83346108d757806003193601126108d757610896610ae2565b80546001600160a01b03198116825581906001600160a01b03167f8be0079c531659141344cd1fd0a4f28419497f9722a3daafe3b4186f6b6457e08280a380f35b80fd5b8281853461040957826003193601126104095781808092356108fa6109ba565b610902610ae2565b82908215610929575b6001600160a01b031690f11561091f575080f35b51903d90823e3d90fd5b6108fc915061090b565b828486346108d75760203660031901126108d75781359067ffffffffffffffff82116108d757509260208161096e60ff948397369101610987565b8091833781016001815203019020541690519015158152f35b9181601f840112156109b55782359167ffffffffffffffff83116109b557602083818601950101116109b557565b600080fd5b602435906001600160a01b03821682036109b557565b600435906001600160a01b03821682036109b557565b60a0810190811067ffffffffffffffff821117610a0257604052565b634e487b7160e01b600052604160045260246000fd5b90601f8019910116810190811067ffffffffffffffff821117610a0257604052565b67ffffffffffffffff8111610a0257601f01601f191660200190565b60206003198201126109b55760043567ffffffffffffffff81116109b557816023820112156109b557806004013590610a8e82610a3a565b92610a9c6040519485610a18565b828452602483830101116109b55781600092602460209301838601378301015290565b60005b838110610ad25750506000910152565b8181015183820152602001610ac2565b6000546001600160a01b03163303610af657565b606460405162461bcd60e51b815260206004820152602060248201527f4f776e61626c653a2063616c6c6572206973206e6f7420746865206f776e65726044820152fd5b15610b4157565b60405162461bcd60e51b815260206004820152601f60248201527f4d6f636b4f6e52616d7050726f76696465723a20696e76616c696420726566006044820152606490fd5b91926060938192845260406020850152816040850152848401376000828201840152601f01601f1916010190565b91929015610c165750815115610bc8575090565b3b15610bd15790565b60405162461bcd60e51b815260206004820152601d60248201527f416464726573733a2063616c6c20746f206e6f6e2d636f6e74726163740000006044820152606490fd5b825190915015610c295750805190602001fd5b6044604051809262461bcd60e51b825260206004830152610c598151809281602486015260208686019101610abf565b601f01601f19168101030190fdfea2646970667358221220dea831aa48172e4e107cb20cc385ee0f4f8aafaa857e4cdd7a2a2296d9c380a164736f6c63430008130033",
  "linkReferences": {},
  "deployedLinkReferences": {}
}