{
  "_format": "hh-sol-artifact-1",
  "contractName": "MockFXOracle",
  "sourceName": "contracts/mocks/MockFXOracle.sol",
  "abi": [
    {
      "inputs": [],
      "stateMutability": "nonpayable",
      "type": "constructor"
    },
    {
      "anonymous": false,
      "inputs": [
        {
          "indexed": false,
          "internalType": "string",
          "name": "sourceCurrency",
          "type": "string"
        },
        {
          "indexed": false,
          "internalType": "string",
          "name": "destinationCurrency",
          "type": "string"
        },
        {
          "indexed": false,
          "internalType": "uint256",
          "name": "rate",
          "type": "uint256"
        }
      ],
      "name": "ExchangeRateUpdated",
      "type": "event"
    },
    {
      "anonymous": false,
      "inputs": [
        {
          "indexed": true,
          "internalType": "address",
          "name": "previousOwner",
          "type": "address"
        },
        {
          "indexed": true,
          "internalType": "address",
          "name": "newOwner",
          "type": "address"
        }
      ],
      "name": "OwnershipTransferred",
      "type": "event"
    },
    {
      "inputs": [
        {
          "internalType": "bytes32",
          "name": "",
          "type": "bytes32"
        }
      ],
      "name": "exchangeRates",
      "outputs": [
        {
          "internalType": "uint256",
          "name": "",
          "type": "uint256"
        }
      ],
      "stateMutability": "view",
      "type": "function"
    },
    {
      "inputs": [
        {
          "internalType": "string",
          "name": "sourceCurrency",
          "type": "string"
        },
        {
          "internalType": "string",
          "name": "destinationCurrency",
          "type": "string"
        }
      ],
      "name": "getExchangeRate",
      "outputs": [
        {
          "internalType": "uint256",
          "name": "rate",
          "type": "uint256"
        }
      ],
      "stateMutability": "view",
      "type": "function"
    },
    {
      "inputs": [
        {
          "internalType": "string",
          "name": "sourceCurrency",
          "type": "string"
        },
        {
          "internalType": "string",
          "name": "destinationCurrency",
          "type": "string"
        }
      ],
      "name": "hasRate",
      "outputs": [
        {
          "internalType": "bool",
          "name": "exists",
          "type": "bool"
        }
      ],
      "stateMutability": "view",
      "type": "function"
    },
    {
      "inputs": [],
      "name": "owner",
      "outputs": [
        {
          "internalType": "address",
          "name": "",
          "type": "address"
        }
      ],
      "stateMutability": "view",
      "type": "function"
    },
    {
      "inputs": [],
      "name": "renounceOwnership",
      "outputs": [],
      "stateMutability": "nonpayable",
      "type": "function"
    },
    {
      "inputs": [
        {
          "internalType": "string",
          "name": "sourceCurrency",
          "type": "string"
        },
        {
          "internalType": "string",
          "name": "destinationCurrency",
          "type": "string"
        },
        {
          "internalType": "uint256",
          "name": "rate",
          "type": "uint256"
        }
      ],
      "name": "setExchangeRate",
      "outputs": [],
      "stateMutability": "nonpayable",
      "type": "function"
    },
    {
      "inputs": [
        {
          "internalType": "address",
          "name": "newOwner",
          "type": "address"
        }
      ],
      "name": "transferOwnership",
      "outputs": [],
      "stateMutability": "nonpayable",
      "type": "function"
    }
  ],
  "bytecode": "0x608060409080825234620004275760008054336001600160a01b03198216811783556200011a93916001600160a01b03167f8be0079c531659141344cd1fd0a4f28419497f9722a3daafe3b4186f6b6457e08480a36200005f816200042c565b83620004116003808452602090818501956224a72960e91b9687815283865162000089816200042c565b84815281810192621554d160ea1b93848152620000db848c8c51938491620000ba8484019788925192839162000482565b8201620000ce885180938684019062000482565b010380845201826200045e565b5190208452600192838352662aa1efb94e0000808a87205589519c8d936200010c60609d8e808852870190620004a7565b9085820387870152620004a7565b908a8401527f845c0503e55ce7a792ea5809c6373a1f366872d05933d0cdd1cf4570b32eb4b39c8d9384920390a1818b8b8b620001d88a620000ba83519562000163876200042c565b8287526200019d8b8089018b81528751956200017f876200042c565b865281860193845287519384918383019687918d5192839162000482565b5190208b52898952620001ca838c6804846fa17fad4d0000958691205551958587968752860190620004a7565b908482038a860152620004a7565b908d8301520390a1818951620001ee816200042c565b8781528b8b620002748a620000ba8986016200023b62292aa160e91b9b8c83528651946200021c866200042c565b8552808501928b845287519384918383019687918d5192839162000482565b5190208b52898d5262000266838c6627147114878000958691205551958587968752860190620004a7565b848103858f015290620004a7565b908d8301520390a1898951916200028b836200042c565b878352888301908152620000ba8b620002cb8b825194620002ac866200042c565b8c8652818601938a8552519384918383019687918b5192839162000482565b51902087528589526200030a6804eda1335692c3000091828d8a2055620002fc8d51958587968752860190620004a7565b908482038c860152620004a7565b908b8301520390a189875162000320816200042c565b858152898782018c8152620000ba8b620003428b825194620002ac866200042c565b519020875285895262000372670f207539952d000091828d8a2055620002fc8d51958587968752860190620004a7565b908b8301520390a1865198620003888a6200042c565b848a52858a019182528751946200039f866200042c565b8552858501908152620003d986895180938d620003c58484019788925192839162000482565b8201620000ce8a5180938684019062000482565b51902082528352670cc47f20295c00009485912055620004038851968688978852870190620004a7565b9185830390860152620004a7565b90858301520390a1516105cb9081620004cf8239f35b600080fd5b604081019081106001600160401b038211176200044857604052565b634e487b7160e01b600052604160045260246000fd5b601f909101601f19168101906001600160401b038211908210176200044857604052565b60005b838110620004965750506000910152565b818101518382015260200162000485565b90602091620004c28151809281855285808601910162000482565b601f01601f191601019056fe60406080815260048036101561001457600080fd5b600091823560e01c8063049b266a146102e35780630aa93a0c14610289578063577a9fc514610261578063715018a6146102045780638da5cb5b146101d8578063a81d6a01146101395763f2fde38b1461006d57600080fd5b34610135576020366003190112610135576001600160a01b038235818116939192908490036101315761009e610476565b83156100df57505082546001600160a01b0319811683178455167f8be0079c531659141344cd1fd0a4f28419497f9722a3daafe3b4186f6b6457e08380a380f35b906020608492519162461bcd60e51b8352820152602660248201527f4f776e61626c653a206e6577206f776e657220697320746865207a65726f206160448201526564647265737360d01b6064820152fd5b8480fd5b8280fd5b5034610135578061017e9361014d3661042b565b9790918892865193849160209b848d95868601998a378401918583018a8152370186838201520380845201826104ce565b5190208152600185522054918215610197575051908152f35b83606492519162461bcd60e51b8352820152601c60248201527f4d6f636b46584f7261636c653a2072617465206e6f7420666f756e64000000006044820152fd5b838234610200578160031936011261020057905490516001600160a01b039091168152602090f35b5080fd5b833461025e578060031936011261025e5761021d610476565b80546001600160a01b03198116825581906001600160a01b03167f8be0079c531659141344cd1fd0a4f28419497f9722a3daafe3b4186f6b6457e08280a380f35b80fd5b5090346101355760203660031901126101355760209282913581526001845220549051908152f35b83823461020057806102cf9261029e3661042b565b9690918792865193849160209a848c95868601998a378401918583018a8152370186838201520380845201826104ce565b519020815260018452205415159051908152f35b5090346101355760603660031901126101355767ffffffffffffffff9181358381116101315761031690369084016103f8565b6024929192359485116103f4576103ea61037c6103749461035e6103dd977f845c0503e55ce7a792ea5809c6373a1f366872d05933d0cdd1cf4570b32eb4b3993691016103f8565b9690916044359561036d610476565b3691610506565b953691610506565b835190602091828101906103bc84828161039c8c8781519384920161054d565b81018651906103b082858301868b0161054d565b010380845201826104ce565b51902089526001825283858a20558451968796606088526060880190610570565b9186830390870152610570565b918301520390a180f35b8580fd5b9181601f840112156104265782359167ffffffffffffffff8311610426576020838186019501011161042657565b600080fd5b60406003198201126104265767ffffffffffffffff916004358381116104265782610458916004016103f8565b9390939260243591821161042657610472916004016103f8565b9091565b6000546001600160a01b0316330361048a57565b606460405162461bcd60e51b815260206004820152602060248201527f4f776e61626c653a2063616c6c6572206973206e6f7420746865206f776e65726044820152fd5b90601f8019910116810190811067ffffffffffffffff8211176104f057604052565b634e487b7160e01b600052604160045260246000fd5b92919267ffffffffffffffff82116104f05760405191610530601f8201601f1916602001846104ce565b829481845281830111610426578281602093846000960137010152565b60005b8381106105605750506000910152565b8181015183820152602001610550565b906020916105898151809281855285808601910161054d565b601f01601f191601019056fea2646970667358221220160d86a88618ac155ad67cfbeca71ed27eb036a06531a756ec9c174e9f00b0d664736f6c63430008130033",
  "linkReferences": {},
  "deployedLinkReferences": {}
}