{"contracts/mocks/MockFXOracle.sol":{"MockFXOracle":{"abi":[{"inputs":[],"stateMutability":"nonpayable","type":"constructor"},{"anonymous":false,"inputs":[{"indexed":false,"internalType":"string","name":"sourceCurrency","type":"string"},{"indexed":false,"internalType":"string","name":"destinationCurrency","type":"string"},{"indexed":false,"internalType":"uint256","name":"rate","type":"uint256"}],"name":"ExchangeRateUpdated","type":"event"},{"anonymous":false,"inputs":[{"indexed":true,"internalType":"address","name":"previousOwner","type":"address"},{"indexed":true,"internalType":"address","name":"newOwner","type":"address"}],"name":"OwnershipTransferred","type":"event"},{"inputs":[{"internalType":"bytes32","name":"","type":"bytes32"}],"name":"exchangeRates","outputs":[{"internalType":"uint256","name":"","type":"uint256"}],"stateMutability":"view","type":"function"},{"inputs":[{"internalType":"string","name":"sourceCurrency","type":"string"},{"internalType":"string","name":"destinationCurrency","type":"string"}],"name":"getExchangeRate","outputs":[{"internalType":"uint256","name":"rate","type":"uint256"}],"stateMutability":"view","type":"function"},{"inputs":[{"internalType":"string","name":"sourceCurrency","type":"string"},{"internalType":"string","name":"destinationCurrency","type":"string"}],"name":"hasRate","outputs":[{"internalType":"bool","name":"exists","type":"bool"}],"stateMutability":"view","type":"function"},{"inputs":[],"name":"owner","outputs":[{"internalType":"address","name":"","type":"address"}],"stateMutability":"view","type":"function"},{"inputs":[],"name":"renounceOwnership","outputs":[],"stateMutability":"nonpayable","type":"function"},{"inputs":[{"internalType":"string","name":"sourceCurrency","type":"string"},{"internalType":"string","name":"destinationCurrency","type":"string"},{"internalType":"uint256","name":"rate","type":"uint256"}],"name":"setExchangeRate","outputs":[],"stateMutability":"nonpayable","type":"function"},{"inputs":[{"internalType":"address","name":"newOwner","type":"address"}],"name":"transferOwnership","outputs":[],"stateMutability":"nonpayable","type":"function"}],"evm":{"bytecode":{"linkReferences":{},"object":"608060409080825234620004275760008054336001600160a01b03198216811783556200011a93916001600160a01b03167f8be0079c531659141344cd1fd0a4f28419497f9722a3daafe3b4186f6b6457e08480a36200005f816200042c565b83620004116003808452602090818501956224a72960e91b9687815283865162000089816200042c565b84815281810192621554d160ea1b93848152620000db848c8c51938491620000ba8484019788925192839162000482565b8201620000ce885180938684019062000482565b010380845201826200045e565b5190208452600192838352662aa1efb94e0000808a87205589519c8d936200010c60609d8e808852870190620004a7565b9085820387870152620004a7565b908a8401527f845c0503e55ce7a792ea5809c6373a1f366872d05933d0cdd1cf4570b32eb4b39c8d9384920390a1818b8b8b620001d88a620000ba83519562000163876200042c565b8287526200019d8b8089018b81528751956200017f876200042c565b865281860193845287519384918383019687918d5192839162000482565b5190208b52898952620001ca838c6804846fa17fad4d0000958691205551958587968752860190620004a7565b908482038a860152620004a7565b908d8301520390a1818951620001ee816200042c565b8781528b8b620002748a620000ba8986016200023b62292aa160e91b9b8c83528651946200021c866200042c565b8552808501928b845287519384918383019687918d5192839162000482565b5190208b52898d5262000266838c6627147114878000958691205551958587968752860190620004a7565b848103858f015290620004a7565b908d8301520390a1898951916200028b836200042c565b878352888301908152620000ba8b620002cb8b825194620002ac866200042c565b8c8652818601938a8552519384918383019687918b5192839162000482565b51902087528589526200030a6804eda1335692c3000091828d8a2055620002fc8d51958587968752860190620004a7565b908482038c860152620004a7565b908b8301520390a189875162000320816200042c565b858152898782018c8152620000ba8b620003428b825194620002ac866200042c565b519020875285895262000372670f207539952d000091828d8a2055620002fc8d51958587968752860190620004a7565b908b8301520390a1865198620003888a6200042c565b848a52858a019182528751946200039f866200042c565b8552858501908152620003d986895180938d620003c58484019788925192839162000482565b8201620000ce8a5180938684019062000482565b51902082528352670cc47f20295c00009485912055620004038851968688978852870190620004a7565b9185830390860152620004a7565b90858301520390a1516105cb9081620004cf8239f35b600080fd5b604081019081106001600160401b038211176200044857604052565b634e487b7160e01b600052604160045260246000fd5b601f909101601f19168101906001600160401b038211908210176200044857604052565b60005b838110620004965750506000910152565b818101518382015260200162000485565b90602091620004c28151809281855285808601910162000482565b601f01601f191601019056fe60406080815260048036101561001457600080fd5b600091823560e01c8063049b266a146102e35780630aa93a0c14610289578063577a9fc514610261578063715018a6146102045780638da5cb5b146101d8578063a81d6a01146101395763f2fde38b1461006d57600080fd5b34610135576020366003190112610135576001600160a01b038235818116939192908490036101315761009e610476565b83156100df57505082546001600160a01b0319811683178455167f8be0079c531659141344cd1fd0a4f28419497f9722a3daafe3b4186f6b6457e08380a380f35b906020608492519162461bcd60e51b8352820152602660248201527f4f776e61626c653a206e6577206f776e657220697320746865207a65726f206160448201526564647265737360d01b6064820152fd5b8480fd5b8280fd5b5034610135578061017e9361014d3661042b565b9790918892865193849160209b848d95868601998a378401918583018a8152370186838201520380845201826104ce565b5190208152600185522054918215610197575051908152f35b83606492519162461bcd60e51b8352820152601c60248201527f4d6f636b46584f7261636c653a2072617465206e6f7420666f756e64000000006044820152fd5b838234610200578160031936011261020057905490516001600160a01b039091168152602090f35b5080fd5b833461025e578060031936011261025e5761021d610476565b80546001600160a01b03198116825581906001600160a01b03167f8be0079c531659141344cd1fd0a4f28419497f9722a3daafe3b4186f6b6457e08280a380f35b80fd5b5090346101355760203660031901126101355760209282913581526001845220549051908152f35b83823461020057806102cf9261029e3661042b565b9690918792865193849160209a848c95868601998a378401918583018a8152370186838201520380845201826104ce565b519020815260018452205415159051908152f35b5090346101355760603660031901126101355767ffffffffffffffff9181358381116101315761031690369084016103f8565b6024929192359485116103f4576103ea61037c6103749461035e6103dd977f845c0503e55ce7a792ea5809c6373a1f366872d05933d0cdd1cf4570b32eb4b3993691016103f8565b9690916044359561036d610476565b3691610506565b953691610506565b835190602091828101906103bc84828161039c8c8781519384920161054d565b81018651906103b082858301868b0161054d565b010380845201826104ce565b51902089526001825283858a20558451968796606088526060880190610570565b9186830390870152610570565b918301520390a180f35b8580fd5b9181601f840112156104265782359167ffffffffffffffff8311610426576020838186019501011161042657565b600080fd5b60406003198201126104265767ffffffffffffffff916004358381116104265782610458916004016103f8565b9390939260243591821161042657610472916004016103f8565b9091565b6000546001600160a01b0316330361048a57565b606460405162461bcd60e51b815260206004820152602060248201527f4f776e61626c653a2063616c6c6572206973206e6f7420746865206f776e65726044820152fd5b90601f8019910116810190811067ffffffffffffffff8211176104f057604052565b634e487b7160e01b600052604160045260246000fd5b92919267ffffffffffffffff82116104f05760405191610530601f8201601f1916602001846104ce565b829481845281830111610426578281602093846000960137010152565b60005b8381106105605750506000910152565b8181015183820152602001610550565b906020916105898151809281855285808601910161054d565b601f01601f191601019056fea2646970667358221220160d86a88618ac155ad67cfbeca71ed27eb036a06531a756ec9c174e9f00b0d664736f6c63430008130033","opcodes":"PUSH1 0x80 PUSH1 0x40 SWAP1 DUP1 DUP3 MSTORE CALLVALUE PUSH3 0x427 JUMPI PUSH1 0x0 DUP1 SLOAD CALLER PUSH1 0x1 PUSH1 0x1 PUSH1 0xA0 SHL SUB NOT DUP3 AND DUP2 OR DUP4 SSTORE PUSH3 0x11A SWAP4 SWAP2 PUSH1 0x1 PUSH1 0x1 PUSH1 0xA0 SHL SUB AND PUSH32 0x8BE0079C531659141344CD1FD0A4F28419497F9722A3DAAFE3B4186F6B6457E0 DUP5 DUP1 LOG3 PUSH3 0x5F DUP2 PUSH3 0x42C JUMP JUMPDEST DUP4 PUSH3 0x411 PUSH1 0x3 DUP1 DUP5 MSTORE PUSH1 0x20 SWAP1 DUP2 DUP6 ADD SWAP6 PUSH3 0x24A729 PUSH1 0xE9 SHL SWAP7 DUP8 DUP2 MSTORE DUP4 DUP7 MLOAD PUSH3 0x89 DUP2 PUSH3 0x42C JUMP JUMPDEST DUP5 DUP2 MSTORE DUP2 DUP2 ADD SWAP3 PUSH3 0x1554D1 PUSH1 0xEA SHL SWAP4 DUP5 DUP2 MSTORE PUSH3 0xDB DUP5 DUP13 DUP13 MLOAD SWAP4 DUP5 SWAP2 PUSH3 0xBA DUP5 DUP5 ADD SWAP8 DUP9 SWAP3 MLOAD SWAP3 DUP4 SWAP2 PUSH3 0x482 JUMP JUMPDEST DUP3 ADD PUSH3 0xCE DUP9 MLOAD DUP1 SWAP4 DUP7 DUP5 ADD SWAP1 PUSH3 0x482 JUMP JUMPDEST ADD SUB DUP1 DUP5 MSTORE ADD DUP3 PUSH3 0x45E JUMP JUMPDEST MLOAD SWAP1 KECCAK256 DUP5 MSTORE PUSH1 0x1 SWAP3 DUP4 DUP4 MSTORE PUSH7 0x2AA1EFB94E0000 DUP1 DUP11 DUP8 KECCAK256 SSTORE DUP10 MLOAD SWAP13 DUP14 SWAP4 PUSH3 0x10C PUSH1 0x60 SWAP14 DUP15 DUP1 DUP9 MSTORE DUP8 ADD SWAP1 PUSH3 0x4A7 JUMP JUMPDEST SWAP1 DUP6 DUP3 SUB DUP8 DUP8 ADD MSTORE PUSH3 0x4A7 JUMP JUMPDEST SWAP1 DUP11 DUP5 ADD MSTORE PUSH32 0x845C0503E55CE7A792EA5809C6373A1F366872D05933D0CDD1CF4570B32EB4B3 SWAP13 DUP14 SWAP4 DUP5 SWAP3 SUB SWAP1 LOG1 DUP2 DUP12 DUP12 DUP12 PUSH3 0x1D8 DUP11 PUSH3 0xBA DUP4 MLOAD SWAP6 PUSH3 0x163 DUP8 PUSH3 0x42C JUMP JUMPDEST DUP3 DUP8 MSTORE PUSH3 0x19D DUP12 DUP1 DUP10 ADD DUP12 DUP2 MSTORE DUP8 MLOAD SWAP6 PUSH3 0x17F DUP8 PUSH3 0x42C JUMP JUMPDEST DUP7 MSTORE DUP2 DUP7 ADD SWAP4 DUP5 MSTORE DUP8 MLOAD SWAP4 DUP5 SWAP2 DUP4 DUP4 ADD SWAP7 DUP8 SWAP2 DUP14 MLOAD SWAP3 DUP4 SWAP2 PUSH3 0x482 JUMP JUMPDEST MLOAD SWAP1 KECCAK256 DUP12 MSTORE DUP10 DUP10 MSTORE PUSH3 0x1CA DUP4 DUP13 PUSH9 0x4846FA17FAD4D0000 SWAP6 DUP7 SWAP2 KECCAK256 SSTORE MLOAD SWAP6 DUP6 DUP8 SWAP7 DUP8 MSTORE DUP7 ADD SWAP1 PUSH3 0x4A7 JUMP JUMPDEST SWAP1 DUP5 DUP3 SUB DUP11 DUP7 ADD MSTORE PUSH3 0x4A7 JUMP JUMPDEST SWAP1 DUP14 DUP4 ADD MSTORE SUB SWAP1 LOG1 DUP2 DUP10 MLOAD PUSH3 0x1EE DUP2 PUSH3 0x42C JUMP JUMPDEST DUP8 DUP2 MSTORE DUP12 DUP12 PUSH3 0x274 DUP11 PUSH3 0xBA DUP10 DUP7 ADD PUSH3 0x23B PUSH3 0x292AA1 PUSH1 0xE9 SHL SWAP12 DUP13 DUP4 MSTORE DUP7 MLOAD SWAP5 PUSH3 0x21C DUP7 PUSH3 0x42C JUMP JUMPDEST DUP6 MSTORE DUP1 DUP6 ADD SWAP3 DUP12 DUP5 MSTORE DUP8 MLOAD SWAP4 DUP5 SWAP2 DUP4 DUP4 ADD SWAP7 DUP8 SWAP2 DUP14 MLOAD SWAP3 DUP4 SWAP2 PUSH3 0x482 JUMP JUMPDEST MLOAD SWAP1 KECCAK256 DUP12 MSTORE DUP10 DUP14 MSTORE PUSH3 0x266 DUP4 DUP13 PUSH7 0x27147114878000 SWAP6 DUP7 SWAP2 KECCAK256 SSTORE MLOAD SWAP6 DUP6 DUP8 SWAP7 DUP8 MSTORE DUP7 ADD SWAP1 PUSH3 0x4A7 JUMP JUMPDEST DUP5 DUP2 SUB DUP6 DUP16 ADD MSTORE SWAP1 PUSH3 0x4A7 JUMP JUMPDEST SWAP1 DUP14 DUP4 ADD MSTORE SUB SWAP1 LOG1 DUP10 DUP10 MLOAD SWAP2 PUSH3 0x28B DUP4 PUSH3 0x42C JUMP JUMPDEST DUP8 DUP4 MSTORE DUP9 DUP4 ADD SWAP1 DUP2 MSTORE PUSH3 0xBA DUP12 PUSH3 0x2CB DUP12 DUP3 MLOAD SWAP5 PUSH3 0x2AC DUP7 PUSH3 0x42C JUMP JUMPDEST DUP13 DUP7 MSTORE DUP2 DUP7 ADD SWAP4 DUP11 DUP6 MSTORE MLOAD SWAP4 DUP5 SWAP2 DUP4 DUP4 ADD SWAP7 DUP8 SWAP2 DUP12 MLOAD SWAP3 DUP4 SWAP2 PUSH3 0x482 JUMP JUMPDEST MLOAD SWAP1 KECCAK256 DUP8 MSTORE DUP6 DUP10 MSTORE PUSH3 0x30A PUSH9 0x4EDA1335692C30000 SWAP2 DUP3 DUP14 DUP11 KECCAK256 SSTORE PUSH3 0x2FC DUP14 MLOAD SWAP6 DUP6 DUP8 SWAP7 DUP8 MSTORE DUP7 ADD SWAP1 PUSH3 0x4A7 JUMP JUMPDEST SWAP1 DUP5 DUP3 SUB DUP13 DUP7 ADD MSTORE PUSH3 0x4A7 JUMP JUMPDEST SWAP1 DUP12 DUP4 ADD MSTORE SUB SWAP1 LOG1 DUP10 DUP8 MLOAD PUSH3 0x320 DUP2 PUSH3 0x42C JUMP JUMPDEST DUP6 DUP2 MSTORE DUP10 DUP8 DUP3 ADD DUP13 DUP2 MSTORE PUSH3 0xBA DUP12 PUSH3 0x342 DUP12 DUP3 MLOAD SWAP5 PUSH3 0x2AC DUP7 PUSH3 0x42C JUMP JUMPDEST MLOAD SWAP1 KECCAK256 DUP8 MSTORE DUP6 DUP10 MSTORE PUSH3 0x372 PUSH8 0xF207539952D0000 SWAP2 DUP3 DUP14 DUP11 KECCAK256 SSTORE PUSH3 0x2FC DUP14 MLOAD SWAP6 DUP6 DUP8 SWAP7 DUP8 MSTORE DUP7 ADD SWAP1 PUSH3 0x4A7 JUMP JUMPDEST SWAP1 DUP12 DUP4 ADD MSTORE SUB SWAP1 LOG1 DUP7 MLOAD SWAP9 PUSH3 0x388 DUP11 PUSH3 0x42C JUMP JUMPDEST DUP5 DUP11 MSTORE DUP6 DUP11 ADD SWAP2 DUP3 MSTORE DUP8 MLOAD SWAP5 PUSH3 0x39F DUP7 PUSH3 0x42C JUMP JUMPDEST DUP6 MSTORE DUP6 DUP6 ADD SWAP1 DUP2 MSTORE PUSH3 0x3D9 DUP7 DUP10 MLOAD DUP1 SWAP4 DUP14 PUSH3 0x3C5 DUP5 DUP5 ADD SWAP8 DUP9 SWAP3 MLOAD SWAP3 DUP4 SWAP2 PUSH3 0x482 JUMP JUMPDEST DUP3 ADD PUSH3 0xCE DUP11 MLOAD DUP1 SWAP4 DUP7 DUP5 ADD SWAP1 PUSH3 0x482 JUMP JUMPDEST MLOAD SWAP1 KECCAK256 DUP3 MSTORE DUP4 MSTORE PUSH8 0xCC47F20295C0000 SWAP5 DUP6 SWAP2 KECCAK256 SSTORE PUSH3 0x403 DUP9 MLOAD SWAP7 DUP7 DUP9 SWAP8 DUP9 MSTORE DUP8 ADD SWAP1 PUSH3 0x4A7 JUMP JUMPDEST SWAP2 DUP6 DUP4 SUB SWAP1 DUP7 ADD MSTORE PUSH3 0x4A7 JUMP JUMPDEST SWAP1 DUP6 DUP4 ADD MSTORE SUB SWAP1 LOG1 MLOAD PUSH2 0x5CB SWAP1 DUP2 PUSH3 0x4CF DUP3 CODECOPY RETURN JUMPDEST PUSH1 0x0 DUP1 REVERT JUMPDEST PUSH1 0x40 DUP2 ADD SWAP1 DUP2 LT PUSH1 0x1 PUSH1 0x1 PUSH1 0x40 SHL SUB DUP3 GT OR PUSH3 0x448 JUMPI PUSH1 0x40 MSTORE JUMP JUMPDEST PUSH4 0x4E487B71 PUSH1 0xE0 SHL PUSH1 0x0 MSTORE PUSH1 0x41 PUSH1 0x4 MSTORE PUSH1 0x24 PUSH1 0x0 REVERT JUMPDEST PUSH1 0x1F SWAP1 SWAP2 ADD PUSH1 0x1F NOT AND DUP2 ADD SWAP1 PUSH1 0x1 PUSH1 0x1 PUSH1 0x40 SHL SUB DUP3 GT SWAP1 DUP3 LT OR PUSH3 0x448 JUMPI PUSH1 0x40 MSTORE JUMP JUMPDEST PUSH1 0x0 JUMPDEST DUP4 DUP2 LT PUSH3 0x496 JUMPI POP POP PUSH1 0x0 SWAP2 ADD MSTORE JUMP JUMPDEST DUP2 DUP2 ADD MLOAD DUP4 DUP3 ADD MSTORE PUSH1 0x20 ADD PUSH3 0x485 JUMP JUMPDEST SWAP1 PUSH1 0x20 SWAP2 PUSH3 0x4C2 DUP2 MLOAD DUP1 SWAP3 DUP2 DUP6 MSTORE DUP6 DUP1 DUP7 ADD SWAP2 ADD PUSH3 0x482 JUMP JUMPDEST PUSH1 0x1F ADD PUSH1 0x1F NOT AND ADD ADD SWAP1 JUMP INVALID PUSH1 0x40 PUSH1 0x80 DUP2 MSTORE PUSH1 0x4 DUP1 CALLDATASIZE LT ISZERO PUSH2 0x14 JUMPI PUSH1 0x0 DUP1 REVERT JUMPDEST PUSH1 0x0 SWAP2 DUP3 CALLDATALOAD PUSH1 0xE0 SHR DUP1 PUSH4 0x49B266A EQ PUSH2 0x2E3 JUMPI DUP1 PUSH4 0xAA93A0C EQ PUSH2 0x289 JUMPI DUP1 PUSH4 0x577A9FC5 EQ PUSH2 0x261 JUMPI DUP1 PUSH4 0x715018A6 EQ PUSH2 0x204 JUMPI DUP1 PUSH4 0x8DA5CB5B EQ PUSH2 0x1D8 JUMPI DUP1 PUSH4 0xA81D6A01 EQ PUSH2 0x139 JUMPI PUSH4 0xF2FDE38B EQ PUSH2 0x6D JUMPI PUSH1 0x0 DUP1 REVERT JUMPDEST CALLVALUE PUSH2 0x135 JUMPI PUSH1 0x20 CALLDATASIZE PUSH1 0x3 NOT ADD SLT PUSH2 0x135 JUMPI PUSH1 0x1 PUSH1 0x1 PUSH1 0xA0 SHL SUB DUP3 CALLDATALOAD DUP2 DUP2 AND SWAP4 SWAP2 SWAP3 SWAP1 DUP5 SWAP1 SUB PUSH2 0x131 JUMPI PUSH2 0x9E PUSH2 0x476 JUMP JUMPDEST DUP4 ISZERO PUSH2 0xDF JUMPI POP POP DUP3 SLOAD PUSH1 0x1 PUSH1 0x1 PUSH1 0xA0 SHL SUB NOT DUP2 AND DUP4 OR DUP5 SSTORE AND PUSH32 0x8BE0079C531659141344CD1FD0A4F28419497F9722A3DAAFE3B4186F6B6457E0 DUP4 DUP1 LOG3 DUP1 RETURN JUMPDEST SWAP1 PUSH1 0x20 PUSH1 0x84 SWAP3 MLOAD SWAP2 PUSH3 0x461BCD PUSH1 0xE5 SHL DUP4 MSTORE DUP3 ADD MSTORE PUSH1 0x26 PUSH1 0x24 DUP3 ADD MSTORE PUSH32 0x4F776E61626C653A206E6577206F776E657220697320746865207A65726F2061 PUSH1 0x44 DUP3 ADD MSTORE PUSH6 0x646472657373 PUSH1 0xD0 SHL PUSH1 0x64 DUP3 ADD MSTORE REVERT JUMPDEST DUP5 DUP1 REVERT JUMPDEST DUP3 DUP1 REVERT JUMPDEST POP CALLVALUE PUSH2 0x135 JUMPI DUP1 PUSH2 0x17E SWAP4 PUSH2 0x14D CALLDATASIZE PUSH2 0x42B JUMP JUMPDEST SWAP8 SWAP1 SWAP2 DUP9 SWAP3 DUP7 MLOAD SWAP4 DUP5 SWAP2 PUSH1 0x20 SWAP12 DUP5 DUP14 SWAP6 DUP7 DUP7 ADD SWAP10 DUP11 CALLDATACOPY DUP5 ADD SWAP2 DUP6 DUP4 ADD DUP11 DUP2 MSTORE CALLDATACOPY ADD DUP7 DUP4 DUP3 ADD MSTORE SUB DUP1 DUP5 MSTORE ADD DUP3 PUSH2 0x4CE JUMP JUMPDEST MLOAD SWAP1 KECCAK256 DUP2 MSTORE PUSH1 0x1 DUP6 MSTORE KECCAK256 SLOAD SWAP2 DUP3 ISZERO PUSH2 0x197 JUMPI POP MLOAD SWAP1 DUP2 MSTORE RETURN JUMPDEST DUP4 PUSH1 0x64 SWAP3 MLOAD SWAP2 PUSH3 0x461BCD PUSH1 0xE5 SHL DUP4 MSTORE DUP3 ADD MSTORE PUSH1 0x1C PUSH1 0x24 DUP3 ADD MSTORE PUSH32 0x4D6F636B46584F7261636C653A2072617465206E6F7420666F756E6400000000 PUSH1 0x44 DUP3 ADD MSTORE REVERT JUMPDEST DUP4 DUP3 CALLVALUE PUSH2 0x200 JUMPI DUP2 PUSH1 0x3 NOT CALLDATASIZE ADD SLT PUSH2 0x200 JUMPI SWAP1 SLOAD SWAP1 MLOAD PUSH1 0x1 PUSH1 0x1 PUSH1 0xA0 SHL SUB SWAP1 SWAP2 AND DUP2 MSTORE PUSH1 0x20 SWAP1 RETURN JUMPDEST POP DUP1 REVERT JUMPDEST DUP4 CALLVALUE PUSH2 0x25E JUMPI DUP1 PUSH1 0x3 NOT CALLDATASIZE ADD SLT PUSH2 0x25E JUMPI PUSH2 0x21D PUSH2 0x476 JUMP JUMPDEST DUP1 SLOAD PUSH1 0x1 PUSH1 0x1 PUSH1 0xA0 SHL SUB NOT DUP2 AND DUP3 SSTORE DUP2 SWAP1 PUSH1 0x1 PUSH1 0x1 PUSH1 0xA0 SHL SUB AND PUSH32 0x8BE0079C531659141344CD1FD0A4F28419497F9722A3DAAFE3B4186F6B6457E0 DUP3 DUP1 LOG3 DUP1 RETURN JUMPDEST DUP1 REVERT JUMPDEST POP SWAP1 CALLVALUE PUSH2 0x135 JUMPI PUSH1 0x20 CALLDATASIZE PUSH1 0x3 NOT ADD SLT PUSH2 0x135 JUMPI PUSH1 0x20 SWAP3 DUP3 SWAP2 CALLDATALOAD DUP2 MSTORE PUSH1 0x1 DUP5 MSTORE KECCAK256 SLOAD SWAP1 MLOAD SWAP1 DUP2 MSTORE RETURN JUMPDEST DUP4 DUP3 CALLVALUE PUSH2 0x200 JUMPI DUP1 PUSH2 0x2CF SWAP3 PUSH2 0x29E CALLDATASIZE PUSH2 0x42B JUMP JUMPDEST SWAP7 SWAP1 SWAP2 DUP8 SWAP3 DUP7 MLOAD SWAP4 DUP5 SWAP2 PUSH1 0x20 SWAP11 DUP5 DUP13 SWAP6 DUP7 DUP7 ADD SWAP10 DUP11 CALLDATACOPY DUP5 ADD SWAP2 DUP6 DUP4 ADD DUP11 DUP2 MSTORE CALLDATACOPY ADD DUP7 DUP4 DUP3 ADD MSTORE SUB DUP1 DUP5 MSTORE ADD DUP3 PUSH2 0x4CE JUMP JUMPDEST MLOAD SWAP1 KECCAK256 DUP2 MSTORE PUSH1 0x1 DUP5 MSTORE KECCAK256 SLOAD ISZERO ISZERO SWAP1 MLOAD SWAP1 DUP2 MSTORE RETURN JUMPDEST POP SWAP1 CALLVALUE PUSH2 0x135 JUMPI PUSH1 0x60 CALLDATASIZE PUSH1 0x3 NOT ADD SLT PUSH2 0x135 JUMPI PUSH8 0xFFFFFFFFFFFFFFFF SWAP2 DUP2 CALLDATALOAD DUP4 DUP2 GT PUSH2 0x131 JUMPI PUSH2 0x316 SWAP1 CALLDATASIZE SWAP1 DUP5 ADD PUSH2 0x3F8 JUMP JUMPDEST PUSH1 0x24 SWAP3 SWAP2 SWAP3 CALLDATALOAD SWAP5 DUP6 GT PUSH2 0x3F4 JUMPI PUSH2 0x3EA PUSH2 0x37C PUSH2 0x374 SWAP5 PUSH2 0x35E PUSH2 0x3DD SWAP8 PUSH32 0x845C0503E55CE7A792EA5809C6373A1F366872D05933D0CDD1CF4570B32EB4B3 SWAP10 CALLDATASIZE SWAP2 ADD PUSH2 0x3F8 JUMP JUMPDEST SWAP7 SWAP1 SWAP2 PUSH1 0x44 CALLDATALOAD SWAP6 PUSH2 0x36D PUSH2 0x476 JUMP JUMPDEST CALLDATASIZE SWAP2 PUSH2 0x506 JUMP JUMPDEST SWAP6 CALLDATASIZE SWAP2 PUSH2 0x506 JUMP JUMPDEST DUP4 MLOAD SWAP1 PUSH1 0x20 SWAP2 DUP3 DUP2 ADD SWAP1 PUSH2 0x3BC DUP5 DUP3 DUP2 PUSH2 0x39C DUP13 DUP8 DUP2 MLOAD SWAP4 DUP5 SWAP3 ADD PUSH2 0x54D JUMP JUMPDEST DUP2 ADD DUP7 MLOAD SWAP1 PUSH2 0x3B0 DUP3 DUP6 DUP4 ADD DUP7 DUP12 ADD PUSH2 0x54D JUMP JUMPDEST ADD SUB DUP1 DUP5 MSTORE ADD DUP3 PUSH2 0x4CE JUMP JUMPDEST MLOAD SWAP1 KECCAK256 DUP10 MSTORE PUSH1 0x1 DUP3 MSTORE DUP4 DUP6 DUP11 KECCAK256 SSTORE DUP5 MLOAD SWAP7 DUP8 SWAP7 PUSH1 0x60 DUP9 MSTORE PUSH1 0x60 DUP9 ADD SWAP1 PUSH2 0x570 JUMP JUMPDEST SWAP2 DUP7 DUP4 SUB SWAP1 DUP8 ADD MSTORE PUSH2 0x570 JUMP JUMPDEST SWAP2 DUP4 ADD MSTORE SUB SWAP1 LOG1 DUP1 RETURN JUMPDEST DUP6 DUP1 REVERT JUMPDEST SWAP2 DUP2 PUSH1 0x1F DUP5 ADD SLT ISZERO PUSH2 0x426 JUMPI DUP3 CALLDATALOAD SWAP2 PUSH8 0xFFFFFFFFFFFFFFFF DUP4 GT PUSH2 0x426 JUMPI PUSH1 0x20 DUP4 DUP2 DUP7 ADD SWAP6 ADD ADD GT PUSH2 0x426 JUMPI JUMP JUMPDEST PUSH1 0x0 DUP1 REVERT JUMPDEST PUSH1 0x40 PUSH1 0x3 NOT DUP3 ADD SLT PUSH2 0x426 JUMPI PUSH8 0xFFFFFFFFFFFFFFFF SWAP2 PUSH1 0x4 CALLDATALOAD DUP4 DUP2 GT PUSH2 0x426 JUMPI DUP3 PUSH2 0x458 SWAP2 PUSH1 0x4 ADD PUSH2 0x3F8 JUMP JUMPDEST SWAP4 SWAP1 SWAP4 SWAP3 PUSH1 0x24 CALLDATALOAD SWAP2 DUP3 GT PUSH2 0x426 JUMPI PUSH2 0x472 SWAP2 PUSH1 0x4 ADD PUSH2 0x3F8 JUMP JUMPDEST SWAP1 SWAP2 JUMP JUMPDEST PUSH1 0x0 SLOAD PUSH1 0x1 PUSH1 0x1 PUSH1 0xA0 SHL SUB AND CALLER SUB PUSH2 0x48A JUMPI JUMP JUMPDEST PUSH1 0x64 PUSH1 0x40 MLOAD PUSH3 0x461BCD PUSH1 0xE5 SHL DUP2 MSTORE PUSH1 0x20 PUSH1 0x4 DUP3 ADD MSTORE PUSH1 0x20 PUSH1 0x24 DUP3 ADD MSTORE PUSH32 0x4F776E61626C653A2063616C6C6572206973206E6F7420746865206F776E6572 PUSH1 0x44 DUP3 ADD MSTORE REVERT JUMPDEST SWAP1 PUSH1 0x1F DUP1 NOT SWAP2 ADD AND DUP2 ADD SWAP1 DUP2 LT PUSH8 0xFFFFFFFFFFFFFFFF DUP3 GT OR PUSH2 0x4F0 JUMPI PUSH1 0x40 MSTORE JUMP JUMPDEST PUSH4 0x4E487B71 PUSH1 0xE0 SHL PUSH1 0x0 MSTORE PUSH1 0x41 PUSH1 0x4 MSTORE PUSH1 0x24 PUSH1 0x0 REVERT JUMPDEST SWAP3 SWAP2 SWAP3 PUSH8 0xFFFFFFFFFFFFFFFF DUP3 GT PUSH2 0x4F0 JUMPI PUSH1 0x40 MLOAD SWAP2 PUSH2 0x530 PUSH1 0x1F DUP3 ADD PUSH1 0x1F NOT AND PUSH1 0x20 ADD DUP5 PUSH2 0x4CE JUMP JUMPDEST DUP3 SWAP5 DUP2 DUP5 MSTORE DUP2 DUP4 ADD GT PUSH2 0x426 JUMPI DUP3 DUP2 PUSH1 0x20 SWAP4 DUP5 PUSH1 0x0 SWAP7 ADD CALLDATACOPY ADD ADD MSTORE JUMP JUMPDEST PUSH1 0x0 JUMPDEST DUP4 DUP2 LT PUSH2 0x560 JUMPI POP POP PUSH1 0x0 SWAP2 ADD MSTORE JUMP JUMPDEST DUP2 DUP2 ADD MLOAD DUP4 DUP3 ADD MSTORE PUSH1 0x20 ADD PUSH2 0x550 JUMP JUMPDEST SWAP1 PUSH1 0x20 SWAP2 PUSH2 0x589 DUP2 MLOAD DUP1 SWAP3 DUP2 DUP6 MSTORE DUP6 DUP1 DUP7 ADD SWAP2 ADD PUSH2 0x54D JUMP JUMPDEST PUSH1 0x1F ADD PUSH1 0x1F NOT AND ADD ADD SWAP1 JUMP INVALID LOG2 PUSH5 0x6970667358 0x22 SLT KECCAK256 AND 0xD DUP7 0xA8 DUP7 XOR 0xAC ISZERO GAS 0xD6 PUSH29 0xFBECA71ED27EB036A06531A756EC9C174E9F00B0D664736F6C63430008 SGT STOP CALLER "},"methodIdentifiers":{"exchangeRates(bytes32)":"577a9fc5","getExchangeRate(string,string)":"a81d6a01","hasRate(string,string)":"0aa93a0c","owner()":"8da5cb5b","renounceOwnership()":"715018a6","setExchangeRate(string,string,uint256)":"049b266a","transferOwnership(address)":"f2fde38b"}}}}}