{"contracts/mocks/MockOnRampProvider.sol":{"MockOnRampProvider":{"abi":[{"inputs":[],"stateMutability":"nonpayable","type":"constructor"},{"anonymous":false,"inputs":[{"indexed":true,"internalType":"address","name":"previousOwner","type":"address"},{"indexed":true,"internalType":"address","name":"newOwner","type":"address"}],"name":"OwnershipTransferred","type":"event"},{"anonymous":false,"inputs":[{"indexed":true,"internalType":"address","name":"user","type":"address"},{"indexed":true,"internalType":"address","name":"stablecoin","type":"address"},{"indexed":false,"internalType":"uint256","name":"amount","type":"uint256"},{"indexed":false,"internalType":"string","name":"ref","type":"string"}],"name":"PaymentProcessed","type":"event"},{"anonymous":false,"inputs":[{"indexed":true,"internalType":"address","name":"user","type":"address"},{"indexed":true,"internalType":"address","name":"stablecoin","type":"address"},{"indexed":false,"internalType":"uint256","name":"amount","type":"uint256"},{"indexed":false,"internalType":"string","name":"ref","type":"string"}],"name":"PaymentReceived","type":"event"},{"inputs":[{"internalType":"string","name":"ref","type":"string"}],"name":"getPayment","outputs":[{"components":[{"internalType":"address","name":"user","type":"address"},{"internalType":"address","name":"stablecoin","type":"address"},{"internalType":"uint256","name":"amount","type":"uint256"},{"internalType":"uint256","name":"timestamp","type":"uint256"},{"internalType":"bool","name":"processed","type":"bool"}],"internalType":"struct MockOnRampProvider.PaymentInfo","name":"","type":"tuple"}],"stateMutability":"view","type":"function"},{"inputs":[{"internalType":"string","name":"ref","type":"string"}],"name":"isPaymentProcessed","outputs":[{"internalType":"bool","name":"","type":"bool"}],"stateMutability":"view","type":"function"},{"inputs":[],"name":"owner","outputs":[{"internalType":"address","name":"","type":"address"}],"stateMutability":"view","type":"function"},{"inputs":[{"internalType":"string","name":"","type":"string"}],"name":"payments","outputs":[{"internalType":"address","name":"user","type":"address"},{"internalType":"address","name":"stablecoin","type":"address"},{"internalType":"uint256","name":"amount","type":"uint256"},{"internalType":"uint256","name":"timestamp","type":"uint256"},{"internalType":"bool","name":"processed","type":"bool"}],"stateMutability":"view","type":"function"},{"inputs":[{"internalType":"string","name":"ref","type":"string"}],"name":"processPayment","outputs":[],"stateMutability":"nonpayable","type":"function"},{"inputs":[{"internalType":"string","name":"","type":"string"}],"name":"processedPayments","outputs":[{"internalType":"bool","name":"","type":"bool"}],"stateMutability":"view","type":"function"},{"inputs":[{"internalType":"address","name":"user","type":"address"},{"internalType":"address","name":"stablecoin","type":"address"},{"internalType":"uint256","name":"amount","type":"uint256"},{"internalType":"string","name":"ref","type":"string"}],"name":"receivePayment","outputs":[],"stateMutability":"nonpayable","type":"function"},{"inputs":[],"name":"renounceOwnership","outputs":[],"stateMutability":"nonpayable","type":"function"},{"inputs":[{"internalType":"address","name":"newOwner","type":"address"}],"name":"transferOwnership","outputs":[],"stateMutability":"nonpayable","type":"function"},{"inputs":[{"internalType":"uint256","name":"amount","type":"uint256"},{"internalType":"address","name":"to","type":"address"}],"name":"withdrawETH","outputs":[],"stateMutability":"nonpayable","type":"function"},{"inputs":[{"internalType":"address","name":"token","type":"address"},{"internalType":"uint256","name":"amount","type":"uint256"},{"internalType":"address","name":"to","type":"address"}],"name":"withdrawTokens","outputs":[],"stateMutability":"nonpayable","type":"function"},{"stateMutability":"payable","type":"receive"}],"evm":{"bytecode":{"linkReferences":{},"object":"6080806040523461005b5760008054336001600160a01b0319821681178355916001600160a01b03909116907f8be0079c531659141344cd1fd0a4f28419497f9722a3daafe3b4186f6b6457e09080a3610c9d90816100618239f35b600080fdfe6080604081815260049081361015610022575b505050361561002057600080fd5b005b600092833560e01c908163149f2e8814610933575083816336118b52146108da57508063715018a61461087d5780638da5cb5b146108555780639b931abf146108155780639bc5c5091461067b578063b7655d70146104ec578063c69207a31461040d578063dde29791146101e0578063f2fde38b1461011d5763f94687130361001257346101195760a092506100cf60206100bd36610a56565b81845193828580945193849201610abf565b81016002815203019020600180851b039283825416936001830154169260ff6002840154926003850154940154169381519586526020860152840152606083015215156080820152f35b8280fd5b509034610119576020366003190112610119576101386109d0565b90610141610ae2565b6001600160a01b0391821692831561018e57505082546001600160a01b0319811683178455167f8be0079c531659141344cd1fd0a4f28419497f9722a3daafe3b4186f6b6457e08380a380f35b906020608492519162461bcd60e51b8352820152602660248201527f4f776e61626c653a206e6577206f776e657220697320746865207a65726f206160448201526564647265737360d01b6064820152fd5b50919034610409576080366003190112610409576101fc6109d0565b906102056109ba565b9060443560643567ffffffffffffffff8111610405576102289036908401610987565b9092610232610ae2565b6001600160a01b039586169485156103c25786169586156103705783156103225791888861031c937f0da8e031922d6bdf36a83b26ef74cd487e4ec7945a6abf37b9b8cf1b194788fd979695610289851515610b3a565b835190610295826109e6565b8a8252602082018c815285830190898252606084019242845260808501968752808c8a8a519182376020818c81016002815203019020955116906bffffffffffffffffffffffff60a01b91828754161786556001860192511690825416179055516002830155516003820155019051151560ff801983541691161790555193849384610b86565b0390a380f35b885162461bcd60e51b8152602081840152602260248201527f4d6f636b4f6e52616d7050726f76696465723a20696e76616c696420616d6f756044820152611b9d60f21b6064820152608490fd5b885162461bcd60e51b8152602081840152602660248201527f4d6f636b4f6e52616d7050726f76696465723a20696e76616c696420737461626044820152653632b1b7b4b760d11b6064820152608490fd5b885162461bcd60e51b8152602081840181905260248201527f4d6f636b4f6e52616d7050726f76696465723a20696e76616c696420757365726044820152606490fd5b8580fd5b5080fd5b503461011957602036600319011261011957813567ffffffffffffffff81116104e85792602061044260a09536908601610987565b9260808551610450816109e6565b828152828582015282878201528260608201520152828451938492833781016002815203019020815191610483836109e6565b600180861b039384835416948585528060018501541660208601908152608060ff60028701549486890195865260038801549760608a019889520154169601951515865283519687525116602086015251908401525160608301525115156080820152f35b8380fd5b50903461011957602036600319011261011957803567ffffffffffffffff81116104e85761051d9036908301610987565b92610526610ae2565b610531841515610b3a565b80518483823760208186810160028152030190209360018060a01b0393848654161561062a5780860180549160ff83166105d157509161031c917fb5e51a9058e00792fede50f44125bb8bc3f068a8f877644c8a3b3d02c74f56e0959493600160ff198093161790556001845183878237602081858101848152030190209182541617905560028688541696600189015416970154925193849384610b86565b608490602086519162461bcd60e51b8352820152602d60248201527f4d6f636b4f6e52616d7050726f76696465723a207061796d656e7420616c726560448201526c18591e481c1c9bd8d95cdcd959609a1b6064820152fd5b608490602084519162461bcd60e51b8352820152602560248201527f4d6f636b4f6e52616d7050726f76696465723a207061796d656e74206e6f7420604482015264199bdd5b9960da1b6064820152fd5b5034610119576060366003190112610119576106956109d0565b6001600160a01b03604435818116939290849003610405576106b5610ae2565b168151906020938483019063a9059cbb60e01b82526024840152602435604484015260448352608083019267ffffffffffffffff818510818611176108025760c08201908111858210176108025785528584527f5361666545524332303a206c6f772d6c6576656c2063616c6c206661696c656460a0820152516107689392918891829182855af13d156107fa573d9161074e83610a3a565b9261075b87519485610a18565b83523d898885013e610bb4565b80518381159182156107d6575b5050905015610782578380f35b5162461bcd60e51b815291820152602a60248201527f5361666545524332303a204552433230206f7065726174696f6e20646964206e6044820152691bdd081cdd58d8d9595960b21b606482015260849150fd5b83809293500103126107f65782015180151581036107f657808338610775565b8480fd5b606091610bb4565b634e487b7160e01b895260418852602489fd5b8382346104095760209060ff6108408361082e36610a56565b81855193828580945193849201610abf565b81016001815203019020541690519015158152f35b838234610409578160031936011261040957905490516001600160a01b039091168152602090f35b83346108d757806003193601126108d757610896610ae2565b80546001600160a01b03198116825581906001600160a01b03167f8be0079c531659141344cd1fd0a4f28419497f9722a3daafe3b4186f6b6457e08280a380f35b80fd5b8281853461040957826003193601126104095781808092356108fa6109ba565b610902610ae2565b82908215610929575b6001600160a01b031690f11561091f575080f35b51903d90823e3d90fd5b6108fc915061090b565b828486346108d75760203660031901126108d75781359067ffffffffffffffff82116108d757509260208161096e60ff948397369101610987565b8091833781016001815203019020541690519015158152f35b9181601f840112156109b55782359167ffffffffffffffff83116109b557602083818601950101116109b557565b600080fd5b602435906001600160a01b03821682036109b557565b600435906001600160a01b03821682036109b557565b60a0810190811067ffffffffffffffff821117610a0257604052565b634e487b7160e01b600052604160045260246000fd5b90601f8019910116810190811067ffffffffffffffff821117610a0257604052565b67ffffffffffffffff8111610a0257601f01601f191660200190565b60206003198201126109b55760043567ffffffffffffffff81116109b557816023820112156109b557806004013590610a8e82610a3a565b92610a9c6040519485610a18565b828452602483830101116109b55781600092602460209301838601378301015290565b60005b838110610ad25750506000910152565b8181015183820152602001610ac2565b6000546001600160a01b03163303610af657565b606460405162461bcd60e51b815260206004820152602060248201527f4f776e61626c653a2063616c6c6572206973206e6f7420746865206f776e65726044820152fd5b15610b4157565b60405162461bcd60e51b815260206004820152601f60248201527f4d6f636b4f6e52616d7050726f76696465723a20696e76616c696420726566006044820152606490fd5b91926060938192845260406020850152816040850152848401376000828201840152601f01601f1916010190565b91929015610c165750815115610bc8575090565b3b15610bd15790565b60405162461bcd60e51b815260206004820152601d60248201527f416464726573733a2063616c6c20746f206e6f6e2d636f6e74726163740000006044820152606490fd5b825190915015610c295750805190602001fd5b6044604051809262461bcd60e51b825260206004830152610c598151809281602486015260208686019101610abf565b601f01601f19168101030190fdfea2646970667358221220dea831aa48172e4e107cb20cc385ee0f4f8aafaa857e4cdd7a2a2296d9c380a164736f6c63430008130033","opcodes":"PUSH1 0x80 DUP1 PUSH1 0x40 MSTORE CALLVALUE PUSH2 0x5B JUMPI PUSH1 0x0 DUP1 SLOAD CALLER PUSH1 0x1 PUSH1 0x1 PUSH1 0xA0 SHL SUB NOT DUP3 AND DUP2 OR DUP4 SSTORE SWAP2 PUSH1 0x1 PUSH1 0x1 PUSH1 0xA0 SHL SUB SWAP1 SWAP2 AND SWAP1 PUSH32 0x8BE0079C531659141344CD1FD0A4F28419497F9722A3DAAFE3B4186F6B6457E0 SWAP1 DUP1 LOG3 PUSH2 0xC9D SWAP1 DUP2 PUSH2 0x61 DUP3 CODECOPY RETURN JUMPDEST PUSH1 0x0 DUP1 REVERT INVALID PUSH1 0x80 PUSH1 0x40 DUP2 DUP2 MSTORE PUSH1 0x4 SWAP1 DUP2 CALLDATASIZE LT ISZERO PUSH2 0x22 JUMPI JUMPDEST POP POP POP CALLDATASIZE ISZERO PUSH2 0x20 JUMPI PUSH1 0x0 DUP1 REVERT JUMPDEST STOP JUMPDEST PUSH1 0x0 SWAP3 DUP4 CALLDATALOAD PUSH1 0xE0 SHR SWAP1 DUP2 PUSH4 0x149F2E88 EQ PUSH2 0x933 JUMPI POP DUP4 DUP2 PUSH4 0x36118B52 EQ PUSH2 0x8DA JUMPI POP DUP1 PUSH4 0x715018A6 EQ PUSH2 0x87D JUMPI DUP1 PUSH4 0x8DA5CB5B EQ PUSH2 0x855 JUMPI DUP1 PUSH4 0x9B931ABF EQ PUSH2 0x815 JUMPI DUP1 PUSH4 0x9BC5C509 EQ PUSH2 0x67B JUMPI DUP1 PUSH4 0xB7655D70 EQ PUSH2 0x4EC JUMPI DUP1 PUSH4 0xC69207A3 EQ PUSH2 0x40D JUMPI DUP1 PUSH4 0xDDE29791 EQ PUSH2 0x1E0 JUMPI DUP1 PUSH4 0xF2FDE38B EQ PUSH2 0x11D JUMPI PUSH4 0xF9468713 SUB PUSH2 0x12 JUMPI CALLVALUE PUSH2 0x119 JUMPI PUSH1 0xA0 SWAP3 POP PUSH2 0xCF PUSH1 0x20 PUSH2 0xBD CALLDATASIZE PUSH2 0xA56 JUMP JUMPDEST DUP2 DUP5 MLOAD SWAP4 DUP3 DUP6 DUP1 SWAP5 MLOAD SWAP4 DUP5 SWAP3 ADD PUSH2 0xABF JUMP JUMPDEST DUP2 ADD PUSH1 0x2 DUP2 MSTORE SUB ADD SWAP1 KECCAK256 PUSH1 0x1 DUP1 DUP6 SHL SUB SWAP3 DUP4 DUP3 SLOAD AND SWAP4 PUSH1 0x1 DUP4 ADD SLOAD AND SWAP3 PUSH1 0xFF PUSH1 0x2 DUP5 ADD SLOAD SWAP3 PUSH1 0x3 DUP6 ADD SLOAD SWAP5 ADD SLOAD AND SWAP4 DUP2 MLOAD SWAP6 DUP7 MSTORE PUSH1 0x20 DUP7 ADD MSTORE DUP5 ADD MSTORE PUSH1 0x60 DUP4 ADD MSTORE ISZERO ISZERO PUSH1 0x80 DUP3 ADD MSTORE RETURN JUMPDEST DUP3 DUP1 REVERT JUMPDEST POP SWAP1 CALLVALUE PUSH2 0x119 JUMPI PUSH1 0x20 CALLDATASIZE PUSH1 0x3 NOT ADD SLT PUSH2 0x119 JUMPI PUSH2 0x138 PUSH2 0x9D0 JUMP JUMPDEST SWAP1 PUSH2 0x141 PUSH2 0xAE2 JUMP JUMPDEST PUSH1 0x1 PUSH1 0x1 PUSH1 0xA0 SHL SUB SWAP2 DUP3 AND SWAP3 DUP4 ISZERO PUSH2 0x18E JUMPI POP POP DUP3 SLOAD PUSH1 0x1 PUSH1 0x1 PUSH1 0xA0 SHL SUB NOT DUP2 AND DUP4 OR DUP5 SSTORE AND PUSH32 0x8BE0079C531659141344CD1FD0A4F28419497F9722A3DAAFE3B4186F6B6457E0 DUP4 DUP1 LOG3 DUP1 RETURN JUMPDEST SWAP1 PUSH1 0x20 PUSH1 0x84 SWAP3 MLOAD SWAP2 PUSH3 0x461BCD PUSH1 0xE5 SHL DUP4 MSTORE DUP3 ADD MSTORE PUSH1 0x26 PUSH1 0x24 DUP3 ADD MSTORE PUSH32 0x4F776E61626C653A206E6577206F776E657220697320746865207A65726F2061 PUSH1 0x44 DUP3 ADD MSTORE PUSH6 0x646472657373 PUSH1 0xD0 SHL PUSH1 0x64 DUP3 ADD MSTORE REVERT JUMPDEST POP SWAP2 SWAP1 CALLVALUE PUSH2 0x409 JUMPI PUSH1 0x80 CALLDATASIZE PUSH1 0x3 NOT ADD SLT PUSH2 0x409 JUMPI PUSH2 0x1FC PUSH2 0x9D0 JUMP JUMPDEST SWAP1 PUSH2 0x205 PUSH2 0x9BA JUMP JUMPDEST SWAP1 PUSH1 0x44 CALLDATALOAD PUSH1 0x64 CALLDATALOAD PUSH8 0xFFFFFFFFFFFFFFFF DUP2 GT PUSH2 0x405 JUMPI PUSH2 0x228 SWAP1 CALLDATASIZE SWAP1 DUP5 ADD PUSH2 0x987 JUMP JUMPDEST SWAP1 SWAP3 PUSH2 0x232 PUSH2 0xAE2 JUMP JUMPDEST PUSH1 0x1 PUSH1 0x1 PUSH1 0xA0 SHL SUB SWAP6 DUP7 AND SWAP5 DUP6 ISZERO PUSH2 0x3C2 JUMPI DUP7 AND SWAP6 DUP7 ISZERO PUSH2 0x370 JUMPI DUP4 ISZERO PUSH2 0x322 JUMPI SWAP2 DUP9 DUP9 PUSH2 0x31C SWAP4 PUSH32 0xDA8E031922D6BDF36A83B26EF74CD487E4EC7945A6ABF37B9B8CF1B194788FD SWAP8 SWAP7 SWAP6 PUSH2 0x289 DUP6 ISZERO ISZERO PUSH2 0xB3A JUMP JUMPDEST DUP4 MLOAD SWAP1 PUSH2 0x295 DUP3 PUSH2 0x9E6 JUMP JUMPDEST DUP11 DUP3 MSTORE PUSH1 0x20 DUP3 ADD DUP13 DUP2 MSTORE DUP6 DUP4 ADD SWAP1 DUP10 DUP3 MSTORE PUSH1 0x60 DUP5 ADD SWAP3 TIMESTAMP DUP5 MSTORE PUSH1 0x80 DUP6 ADD SWAP7 DUP8 MSTORE DUP1 DUP13 DUP11 DUP11 MLOAD SWAP2 DUP3 CALLDATACOPY PUSH1 0x20 DUP2 DUP13 DUP2 ADD PUSH1 0x2 DUP2 MSTORE SUB ADD SWAP1 KECCAK256 SWAP6 MLOAD AND SWAP1 PUSH12 0xFFFFFFFFFFFFFFFFFFFFFFFF PUSH1 0xA0 SHL SWAP2 DUP3 DUP8 SLOAD AND OR DUP7 SSTORE PUSH1 0x1 DUP7 ADD SWAP3 MLOAD AND SWAP1 DUP3 SLOAD AND OR SWAP1 SSTORE MLOAD PUSH1 0x2 DUP4 ADD SSTORE MLOAD PUSH1 0x3 DUP3 ADD SSTORE ADD SWAP1 MLOAD ISZERO ISZERO PUSH1 0xFF DUP1 NOT DUP4 SLOAD AND SWAP2 AND OR SWAP1 SSTORE MLOAD SWAP4 DUP5 SWAP4 DUP5 PUSH2 0xB86 JUMP JUMPDEST SUB SWAP1 LOG3 DUP1 RETURN JUMPDEST DUP9 MLOAD PUSH3 0x461BCD PUSH1 0xE5 SHL DUP2 MSTORE PUSH1 0x20 DUP2 DUP5 ADD MSTORE PUSH1 0x22 PUSH1 0x24 DUP3 ADD MSTORE PUSH32 0x4D6F636B4F6E52616D7050726F76696465723A20696E76616C696420616D6F75 PUSH1 0x44 DUP3 ADD MSTORE PUSH2 0x1B9D PUSH1 0xF2 SHL PUSH1 0x64 DUP3 ADD MSTORE PUSH1 0x84 SWAP1 REVERT JUMPDEST DUP9 MLOAD PUSH3 0x461BCD PUSH1 0xE5 SHL DUP2 MSTORE PUSH1 0x20 DUP2 DUP5 ADD MSTORE PUSH1 0x26 PUSH1 0x24 DUP3 ADD MSTORE PUSH32 0x4D6F636B4F6E52616D7050726F76696465723A20696E76616C69642073746162 PUSH1 0x44 DUP3 ADD MSTORE PUSH6 0x3632B1B7B4B7 PUSH1 0xD1 SHL PUSH1 0x64 DUP3 ADD MSTORE PUSH1 0x84 SWAP1 REVERT JUMPDEST DUP9 MLOAD PUSH3 0x461BCD PUSH1 0xE5 SHL DUP2 MSTORE PUSH1 0x20 DUP2 DUP5 ADD DUP2 SWAP1 MSTORE PUSH1 0x24 DUP3 ADD MSTORE PUSH32 0x4D6F636B4F6E52616D7050726F76696465723A20696E76616C69642075736572 PUSH1 0x44 DUP3 ADD MSTORE PUSH1 0x64 SWAP1 REVERT JUMPDEST DUP6 DUP1 REVERT JUMPDEST POP DUP1 REVERT JUMPDEST POP CALLVALUE PUSH2 0x119 JUMPI PUSH1 0x20 CALLDATASIZE PUSH1 0x3 NOT ADD SLT PUSH2 0x119 JUMPI DUP2 CALLDATALOAD PUSH8 0xFFFFFFFFFFFFFFFF DUP2 GT PUSH2 0x4E8 JUMPI SWAP3 PUSH1 0x20 PUSH2 0x442 PUSH1 0xA0 SWAP6 CALLDATASIZE SWAP1 DUP7 ADD PUSH2 0x987 JUMP JUMPDEST SWAP3 PUSH1 0x80 DUP6 MLOAD PUSH2 0x450 DUP2 PUSH2 0x9E6 JUMP JUMPDEST DUP3 DUP2 MSTORE DUP3 DUP6 DUP3 ADD MSTORE DUP3 DUP8 DUP3 ADD MSTORE DUP3 PUSH1 0x60 DUP3 ADD MSTORE ADD MSTORE DUP3 DUP5 MLOAD SWAP4 DUP5 SWAP3 DUP4 CALLDATACOPY DUP2 ADD PUSH1 0x2 DUP2 MSTORE SUB ADD SWAP1 KECCAK256 DUP2 MLOAD SWAP2 PUSH2 0x483 DUP4 PUSH2 0x9E6 JUMP JUMPDEST PUSH1 0x1 DUP1 DUP7 SHL SUB SWAP4 DUP5 DUP4 SLOAD AND SWAP5 DUP6 DUP6 MSTORE DUP1 PUSH1 0x1 DUP6 ADD SLOAD AND PUSH1 0x20 DUP7 ADD SWAP1 DUP2 MSTORE PUSH1 0x80 PUSH1 0xFF PUSH1 0x2 DUP8 ADD SLOAD SWAP5 DUP7 DUP10 ADD SWAP6 DUP7 MSTORE PUSH1 0x3 DUP9 ADD SLOAD SWAP8 PUSH1 0x60 DUP11 ADD SWAP9 DUP10 MSTORE ADD SLOAD AND SWAP7 ADD SWAP6 ISZERO ISZERO DUP7 MSTORE DUP4 MLOAD SWAP7 DUP8 MSTORE MLOAD AND PUSH1 0x20 DUP7 ADD MSTORE MLOAD SWAP1 DUP5 ADD MSTORE MLOAD PUSH1 0x60 DUP4 ADD MSTORE MLOAD ISZERO ISZERO PUSH1 0x80 DUP3 ADD MSTORE RETURN JUMPDEST DUP4 DUP1 REVERT JUMPDEST POP SWAP1 CALLVALUE PUSH2 0x119 JUMPI PUSH1 0x20 CALLDATASIZE PUSH1 0x3 NOT ADD SLT PUSH2 0x119 JUMPI DUP1 CALLDATALOAD PUSH8 0xFFFFFFFFFFFFFFFF DUP2 GT PUSH2 0x4E8 JUMPI PUSH2 0x51D SWAP1 CALLDATASIZE SWAP1 DUP4 ADD PUSH2 0x987 JUMP JUMPDEST SWAP3 PUSH2 0x526 PUSH2 0xAE2 JUMP JUMPDEST PUSH2 0x531 DUP5 ISZERO ISZERO PUSH2 0xB3A JUMP JUMPDEST DUP1 MLOAD DUP5 DUP4 DUP3 CALLDATACOPY PUSH1 0x20 DUP2 DUP7 DUP2 ADD PUSH1 0x2 DUP2 MSTORE SUB ADD SWAP1 KECCAK256 SWAP4 PUSH1 0x1 DUP1 PUSH1 0xA0 SHL SUB SWAP4 DUP5 DUP7 SLOAD AND ISZERO PUSH2 0x62A JUMPI DUP1 DUP7 ADD DUP1 SLOAD SWAP2 PUSH1 0xFF DUP4 AND PUSH2 0x5D1 JUMPI POP SWAP2 PUSH2 0x31C SWAP2 PUSH32 0xB5E51A9058E00792FEDE50F44125BB8BC3F068A8F877644C8A3B3D02C74F56E0 SWAP6 SWAP5 SWAP4 PUSH1 0x1 PUSH1 0xFF NOT DUP1 SWAP4 AND OR SWAP1 SSTORE PUSH1 0x1 DUP5 MLOAD DUP4 DUP8 DUP3 CALLDATACOPY PUSH1 0x20 DUP2 DUP6 DUP2 ADD DUP5 DUP2 MSTORE SUB ADD SWAP1 KECCAK256 SWAP2 DUP3 SLOAD AND OR SWAP1 SSTORE PUSH1 0x2 DUP7 DUP9 SLOAD AND SWAP7 PUSH1 0x1 DUP10 ADD SLOAD AND SWAP8 ADD SLOAD SWAP3 MLOAD SWAP4 DUP5 SWAP4 DUP5 PUSH2 0xB86 JUMP JUMPDEST PUSH1 0x84 SWAP1 PUSH1 0x20 DUP7 MLOAD SWAP2 PUSH3 0x461BCD PUSH1 0xE5 SHL DUP4 MSTORE DUP3 ADD MSTORE PUSH1 0x2D PUSH1 0x24 DUP3 ADD MSTORE PUSH32 0x4D6F636B4F6E52616D7050726F76696465723A207061796D656E7420616C7265 PUSH1 0x44 DUP3 ADD MSTORE PUSH13 0x18591E481C1C9BD8D95CDCD959 PUSH1 0x9A SHL PUSH1 0x64 DUP3 ADD MSTORE REVERT JUMPDEST PUSH1 0x84 SWAP1 PUSH1 0x20 DUP5 MLOAD SWAP2 PUSH3 0x461BCD PUSH1 0xE5 SHL DUP4 MSTORE DUP3 ADD MSTORE PUSH1 0x25 PUSH1 0x24 DUP3 ADD MSTORE PUSH32 0x4D6F636B4F6E52616D7050726F76696465723A207061796D656E74206E6F7420 PUSH1 0x44 DUP3 ADD MSTORE PUSH5 0x199BDD5B99 PUSH1 0xDA SHL PUSH1 0x64 DUP3 ADD MSTORE REVERT JUMPDEST POP CALLVALUE PUSH2 0x119 JUMPI PUSH1 0x60 CALLDATASIZE PUSH1 0x3 NOT ADD SLT PUSH2 0x119 JUMPI PUSH2 0x695 PUSH2 0x9D0 JUMP JUMPDEST PUSH1 0x1 PUSH1 0x1 PUSH1 0xA0 SHL SUB PUSH1 0x44 CALLDATALOAD DUP2 DUP2 AND SWAP4 SWAP3 SWAP1 DUP5 SWAP1 SUB PUSH2 0x405 JUMPI PUSH2 0x6B5 PUSH2 0xAE2 JUMP JUMPDEST AND DUP2 MLOAD SWAP1 PUSH1 0x20 SWAP4 DUP5 DUP4 ADD SWAP1 PUSH4 0xA9059CBB PUSH1 0xE0 SHL DUP3 MSTORE PUSH1 0x24 DUP5 ADD MSTORE PUSH1 0x24 CALLDATALOAD PUSH1 0x44 DUP5 ADD MSTORE PUSH1 0x44 DUP4 MSTORE PUSH1 0x80 DUP4 ADD SWAP3 PUSH8 0xFFFFFFFFFFFFFFFF DUP2 DUP6 LT DUP2 DUP7 GT OR PUSH2 0x802 JUMPI PUSH1 0xC0 DUP3 ADD SWAP1 DUP2 GT DUP6 DUP3 LT OR PUSH2 0x802 JUMPI DUP6 MSTORE DUP6 DUP5 MSTORE PUSH32 0x5361666545524332303A206C6F772D6C6576656C2063616C6C206661696C6564 PUSH1 0xA0 DUP3 ADD MSTORE MLOAD PUSH2 0x768 SWAP4 SWAP3 SWAP2 DUP9 SWAP2 DUP3 SWAP2 DUP3 DUP6 GAS CALL RETURNDATASIZE ISZERO PUSH2 0x7FA JUMPI RETURNDATASIZE SWAP2 PUSH2 0x74E DUP4 PUSH2 0xA3A JUMP JUMPDEST SWAP3 PUSH2 0x75B DUP8 MLOAD SWAP5 DUP6 PUSH2 0xA18 JUMP JUMPDEST DUP4 MSTORE RETURNDATASIZE DUP10 DUP9 DUP6 ADD RETURNDATACOPY PUSH2 0xBB4 JUMP JUMPDEST DUP1 MLOAD DUP4 DUP2 ISZERO SWAP2 DUP3 ISZERO PUSH2 0x7D6 JUMPI JUMPDEST POP POP SWAP1 POP ISZERO PUSH2 0x782 JUMPI DUP4 DUP1 RETURN JUMPDEST MLOAD PUSH3 0x461BCD PUSH1 0xE5 SHL DUP2 MSTORE SWAP2 DUP3 ADD MSTORE PUSH1 0x2A PUSH1 0x24 DUP3 ADD MSTORE PUSH32 0x5361666545524332303A204552433230206F7065726174696F6E20646964206E PUSH1 0x44 DUP3 ADD MSTORE PUSH10 0x1BDD081CDD58D8D95959 PUSH1 0xB2 SHL PUSH1 0x64 DUP3 ADD MSTORE PUSH1 0x84 SWAP2 POP REVERT JUMPDEST DUP4 DUP1 SWAP3 SWAP4 POP ADD SUB SLT PUSH2 0x7F6 JUMPI DUP3 ADD MLOAD DUP1 ISZERO ISZERO DUP2 SUB PUSH2 0x7F6 JUMPI DUP1 DUP4 CODESIZE PUSH2 0x775 JUMP JUMPDEST DUP5 DUP1 REVERT JUMPDEST PUSH1 0x60 SWAP2 PUSH2 0xBB4 JUMP JUMPDEST PUSH4 0x4E487B71 PUSH1 0xE0 SHL DUP10 MSTORE PUSH1 0x41 DUP9 MSTORE PUSH1 0x24 DUP10 REVERT JUMPDEST DUP4 DUP3 CALLVALUE PUSH2 0x409 JUMPI PUSH1 0x20 SWAP1 PUSH1 0xFF PUSH2 0x840 DUP4 PUSH2 0x82E CALLDATASIZE PUSH2 0xA56 JUMP JUMPDEST DUP2 DUP6 MLOAD SWAP4 DUP3 DUP6 DUP1 SWAP5 MLOAD SWAP4 DUP5 SWAP3 ADD PUSH2 0xABF JUMP JUMPDEST DUP2 ADD PUSH1 0x1 DUP2 MSTORE SUB ADD SWAP1 KECCAK256 SLOAD AND SWAP1 MLOAD SWAP1 ISZERO ISZERO DUP2 MSTORE RETURN JUMPDEST DUP4 DUP3 CALLVALUE PUSH2 0x409 JUMPI DUP2 PUSH1 0x3 NOT CALLDATASIZE ADD SLT PUSH2 0x409 JUMPI SWAP1 SLOAD SWAP1 MLOAD PUSH1 0x1 PUSH1 0x1 PUSH1 0xA0 SHL SUB SWAP1 SWAP2 AND DUP2 MSTORE PUSH1 0x20 SWAP1 RETURN JUMPDEST DUP4 CALLVALUE PUSH2 0x8D7 JUMPI DUP1 PUSH1 0x3 NOT CALLDATASIZE ADD SLT PUSH2 0x8D7 JUMPI PUSH2 0x896 PUSH2 0xAE2 JUMP JUMPDEST DUP1 SLOAD PUSH1 0x1 PUSH1 0x1 PUSH1 0xA0 SHL SUB NOT DUP2 AND DUP3 SSTORE DUP2 SWAP1 PUSH1 0x1 PUSH1 0x1 PUSH1 0xA0 SHL SUB AND PUSH32 0x8BE0079C531659141344CD1FD0A4F28419497F9722A3DAAFE3B4186F6B6457E0 DUP3 DUP1 LOG3 DUP1 RETURN JUMPDEST DUP1 REVERT JUMPDEST DUP3 DUP2 DUP6 CALLVALUE PUSH2 0x409 JUMPI DUP3 PUSH1 0x3 NOT CALLDATASIZE ADD SLT PUSH2 0x409 JUMPI DUP2 DUP1 DUP1 SWAP3 CALLDATALOAD PUSH2 0x8FA PUSH2 0x9BA JUMP JUMPDEST PUSH2 0x902 PUSH2 0xAE2 JUMP JUMPDEST DUP3 SWAP1 DUP3 ISZERO PUSH2 0x929 JUMPI JUMPDEST PUSH1 0x1 PUSH1 0x1 PUSH1 0xA0 SHL SUB AND SWAP1 CALL ISZERO PUSH2 0x91F JUMPI POP DUP1 RETURN JUMPDEST MLOAD SWAP1 RETURNDATASIZE SWAP1 DUP3 RETURNDATACOPY RETURNDATASIZE SWAP1 REVERT JUMPDEST PUSH2 0x8FC SWAP2 POP PUSH2 0x90B JUMP JUMPDEST DUP3 DUP5 DUP7 CALLVALUE PUSH2 0x8D7 JUMPI PUSH1 0x20 CALLDATASIZE PUSH1 0x3 NOT ADD SLT PUSH2 0x8D7 JUMPI DUP2 CALLDATALOAD SWAP1 PUSH8 0xFFFFFFFFFFFFFFFF DUP3 GT PUSH2 0x8D7 JUMPI POP SWAP3 PUSH1 0x20 DUP2 PUSH2 0x96E PUSH1 0xFF SWAP5 DUP4 SWAP8 CALLDATASIZE SWAP2 ADD PUSH2 0x987 JUMP JUMPDEST DUP1 SWAP2 DUP4 CALLDATACOPY DUP2 ADD PUSH1 0x1 DUP2 MSTORE SUB ADD SWAP1 KECCAK256 SLOAD AND SWAP1 MLOAD SWAP1 ISZERO ISZERO DUP2 MSTORE RETURN JUMPDEST SWAP2 DUP2 PUSH1 0x1F DUP5 ADD SLT ISZERO PUSH2 0x9B5 JUMPI DUP3 CALLDATALOAD SWAP2 PUSH8 0xFFFFFFFFFFFFFFFF DUP4 GT PUSH2 0x9B5 JUMPI PUSH1 0x20 DUP4 DUP2 DUP7 ADD SWAP6 ADD ADD GT PUSH2 0x9B5 JUMPI JUMP JUMPDEST PUSH1 0x0 DUP1 REVERT JUMPDEST PUSH1 0x24 CALLDATALOAD SWAP1 PUSH1 0x1 PUSH1 0x1 PUSH1 0xA0 SHL SUB DUP3 AND DUP3 SUB PUSH2 0x9B5 JUMPI JUMP JUMPDEST PUSH1 0x4 CALLDATALOAD SWAP1 PUSH1 0x1 PUSH1 0x1 PUSH1 0xA0 SHL SUB DUP3 AND DUP3 SUB PUSH2 0x9B5 JUMPI JUMP JUMPDEST PUSH1 0xA0 DUP2 ADD SWAP1 DUP2 LT PUSH8 0xFFFFFFFFFFFFFFFF DUP3 GT OR PUSH2 0xA02 JUMPI PUSH1 0x40 MSTORE JUMP JUMPDEST PUSH4 0x4E487B71 PUSH1 0xE0 SHL PUSH1 0x0 MSTORE PUSH1 0x41 PUSH1 0x4 MSTORE PUSH1 0x24 PUSH1 0x0 REVERT JUMPDEST SWAP1 PUSH1 0x1F DUP1 NOT SWAP2 ADD AND DUP2 ADD SWAP1 DUP2 LT PUSH8 0xFFFFFFFFFFFFFFFF DUP3 GT OR PUSH2 0xA02 JUMPI PUSH1 0x40 MSTORE JUMP JUMPDEST PUSH8 0xFFFFFFFFFFFFFFFF DUP2 GT PUSH2 0xA02 JUMPI PUSH1 0x1F ADD PUSH1 0x1F NOT AND PUSH1 0x20 ADD SWAP1 JUMP JUMPDEST PUSH1 0x20 PUSH1 0x3 NOT DUP3 ADD SLT PUSH2 0x9B5 JUMPI PUSH1 0x4 CALLDATALOAD PUSH8 0xFFFFFFFFFFFFFFFF DUP2 GT PUSH2 0x9B5 JUMPI DUP2 PUSH1 0x23 DUP3 ADD SLT ISZERO PUSH2 0x9B5 JUMPI DUP1 PUSH1 0x4 ADD CALLDATALOAD SWAP1 PUSH2 0xA8E DUP3 PUSH2 0xA3A JUMP JUMPDEST SWAP3 PUSH2 0xA9C PUSH1 0x40 MLOAD SWAP5 DUP6 PUSH2 0xA18 JUMP JUMPDEST DUP3 DUP5 MSTORE PUSH1 0x24 DUP4 DUP4 ADD ADD GT PUSH2 0x9B5 JUMPI DUP2 PUSH1 0x0 SWAP3 PUSH1 0x24 PUSH1 0x20 SWAP4 ADD DUP4 DUP7 ADD CALLDATACOPY DUP4 ADD ADD MSTORE SWAP1 JUMP JUMPDEST PUSH1 0x0 JUMPDEST DUP4 DUP2 LT PUSH2 0xAD2 JUMPI POP POP PUSH1 0x0 SWAP2 ADD MSTORE JUMP JUMPDEST DUP2 DUP2 ADD MLOAD DUP4 DUP3 ADD MSTORE PUSH1 0x20 ADD PUSH2 0xAC2 JUMP JUMPDEST PUSH1 0x0 SLOAD PUSH1 0x1 PUSH1 0x1 PUSH1 0xA0 SHL SUB AND CALLER SUB PUSH2 0xAF6 JUMPI JUMP JUMPDEST PUSH1 0x64 PUSH1 0x40 MLOAD PUSH3 0x461BCD PUSH1 0xE5 SHL DUP2 MSTORE PUSH1 0x20 PUSH1 0x4 DUP3 ADD MSTORE PUSH1 0x20 PUSH1 0x24 DUP3 ADD MSTORE PUSH32 0x4F776E61626C653A2063616C6C6572206973206E6F7420746865206F776E6572 PUSH1 0x44 DUP3 ADD MSTORE REVERT JUMPDEST ISZERO PUSH2 0xB41 JUMPI JUMP JUMPDEST PUSH1 0x40 MLOAD PUSH3 0x461BCD PUSH1 0xE5 SHL DUP2 MSTORE PUSH1 0x20 PUSH1 0x4 DUP3 ADD MSTORE PUSH1 0x1F PUSH1 0x24 DUP3 ADD MSTORE PUSH32 0x4D6F636B4F6E52616D7050726F76696465723A20696E76616C69642072656600 PUSH1 0x44 DUP3 ADD MSTORE PUSH1 0x64 SWAP1 REVERT JUMPDEST SWAP2 SWAP3 PUSH1 0x60 SWAP4 DUP2 SWAP3 DUP5 MSTORE PUSH1 0x40 PUSH1 0x20 DUP6 ADD MSTORE DUP2 PUSH1 0x40 DUP6 ADD MSTORE DUP5 DUP5 ADD CALLDATACOPY PUSH1 0x0 DUP3 DUP3 ADD DUP5 ADD MSTORE PUSH1 0x1F ADD PUSH1 0x1F NOT AND ADD ADD SWAP1 JUMP JUMPDEST SWAP2 SWAP3 SWAP1 ISZERO PUSH2 0xC16 JUMPI POP DUP2 MLOAD ISZERO PUSH2 0xBC8 JUMPI POP SWAP1 JUMP JUMPDEST EXTCODESIZE ISZERO PUSH2 0xBD1 JUMPI SWAP1 JUMP JUMPDEST PUSH1 0x40 MLOAD PUSH3 0x461BCD PUSH1 0xE5 SHL DUP2 MSTORE PUSH1 0x20 PUSH1 0x4 DUP3 ADD MSTORE PUSH1 0x1D PUSH1 0x24 DUP3 ADD MSTORE PUSH32 0x416464726573733A2063616C6C20746F206E6F6E2D636F6E7472616374000000 PUSH1 0x44 DUP3 ADD MSTORE PUSH1 0x64 SWAP1 REVERT JUMPDEST DUP3 MLOAD SWAP1 SWAP2 POP ISZERO PUSH2 0xC29 JUMPI POP DUP1 MLOAD SWAP1 PUSH1 0x20 ADD REVERT JUMPDEST PUSH1 0x44 PUSH1 0x40 MLOAD DUP1 SWAP3 PUSH3 0x461BCD PUSH1 0xE5 SHL DUP3 MSTORE PUSH1 0x20 PUSH1 0x4 DUP4 ADD MSTORE PUSH2 0xC59 DUP2 MLOAD DUP1 SWAP3 DUP2 PUSH1 0x24 DUP7 ADD MSTORE PUSH1 0x20 DUP7 DUP7 ADD SWAP2 ADD PUSH2 0xABF JUMP JUMPDEST PUSH1 0x1F ADD PUSH1 0x1F NOT AND DUP2 ADD SUB ADD SWAP1 REVERT INVALID LOG2 PUSH5 0x6970667358 0x22 SLT KECCAK256 0xDE 0xA8 BALANCE 0xAA BASEFEE OR 0x2E 0x4E LT PUSH29 0xB20CC385EE0F4F8AAFAA857E4CDD7A2A2296D9C380A164736F6C634300 ADDMOD SGT STOP CALLER "},"methodIdentifiers":{"getPayment(string)":"c69207a3","isPaymentProcessed(string)":"149f2e88","owner()":"8da5cb5b","payments(string)":"f9468713","processPayment(string)":"b7655d70","processedPayments(string)":"9b931abf","receivePayment(address,address,uint256,string)":"dde29791","renounceOwnership()":"715018a6","transferOwnership(address)":"f2fde38b","withdrawETH(uint256,address)":"36118b52","withdrawTokens(address,uint256,address)":"9bc5c509"}}}}}