{"contracts/mocks/MockOffRampProvider.sol":{"MockOffRampProvider":{"abi":[{"inputs":[],"stateMutability":"nonpayable","type":"constructor"},{"anonymous":false,"inputs":[{"indexed":true,"internalType":"address","name":"previousOwner","type":"address"},{"indexed":true,"internalType":"address","name":"newOwner","type":"address"}],"name":"OwnershipTransferred","type":"event"},{"anonymous":false,"inputs":[{"indexed":true,"internalType":"string","name":"transferId","type":"string"},{"indexed":true,"internalType":"address","name":"stablecoin","type":"address"},{"indexed":false,"internalType":"uint256","name":"amount","type":"uint256"},{"indexed":false,"internalType":"string","name":"recipientDetails","type":"string"}],"name":"TransferProcessed","type":"event"},{"anonymous":false,"inputs":[{"indexed":true,"internalType":"address","name":"from","type":"address"},{"indexed":true,"internalType":"address","name":"stablecoin","type":"address"},{"indexed":false,"internalType":"uint256","name":"amount","type":"uint256"},{"indexed":false,"internalType":"string","name":"recipientDetails","type":"string"}],"name":"TransferReceived","type":"event"},{"inputs":[{"internalType":"string","name":"transferId","type":"string"}],"name":"getTransfer","outputs":[{"components":[{"internalType":"address","name":"from","type":"address"},{"internalType":"address","name":"stablecoin","type":"address"},{"internalType":"uint256","name":"amount","type":"uint256"},{"internalType":"string","name":"recipientDetails","type":"string"},{"internalType":"uint256","name":"timestamp","type":"uint256"},{"internalType":"bool","name":"processed","type":"bool"}],"internalType":"struct MockOffRampProvider.TransferInfo","name":"","type":"tuple"}],"stateMutability":"view","type":"function"},{"inputs":[{"internalType":"string","name":"transferId","type":"string"}],"name":"isTransferProcessed","outputs":[{"internalType":"bool","name":"","type":"bool"}],"stateMutability":"view","type":"function"},{"inputs":[],"name":"owner","outputs":[{"internalType":"address","name":"","type":"address"}],"stateMutability":"view","type":"function"},{"inputs":[{"internalType":"string","name":"transferId","type":"string"}],"name":"processTransfer","outputs":[],"stateMutability":"nonpayable","type":"function"},{"inputs":[{"internalType":"string","name":"","type":"string"}],"name":"processedTransfers","outputs":[{"internalType":"bool","name":"","type":"bool"}],"stateMutability":"view","type":"function"},{"inputs":[{"internalType":"address","name":"from","type":"address"},{"internalType":"address","name":"stablecoin","type":"address"},{"internalType":"uint256","name":"amount","type":"uint256"},{"internalType":"string","name":"recipientDetails","type":"string"}],"name":"receiveTransfer","outputs":[],"stateMutability":"nonpayable","type":"function"},{"inputs":[],"name":"renounceOwnership","outputs":[],"stateMutability":"nonpayable","type":"function"},{"inputs":[{"internalType":"address","name":"newOwner","type":"address"}],"name":"transferOwnership","outputs":[],"stateMutability":"nonpayable","type":"function"},{"inputs":[{"internalType":"string","name":"","type":"string"}],"name":"transfers","outputs":[{"internalType":"address","name":"from","type":"address"},{"internalType":"address","name":"stablecoin","type":"address"},{"internalType":"uint256","name":"amount","type":"uint256"},{"internalType":"string","name":"recipientDetails","type":"string"},{"internalType":"uint256","name":"timestamp","type":"uint256"},{"internalType":"bool","name":"processed","type":"bool"}],"stateMutability":"view","type":"function"},{"inputs":[{"internalType":"uint256","name":"amount","type":"uint256"},{"internalType":"address","name":"to","type":"address"}],"name":"withdrawETH","outputs":[],"stateMutability":"nonpayable","type":"function"},{"inputs":[{"internalType":"address","name":"token","type":"address"},{"internalType":"uint256","name":"amount","type":"uint256"},{"internalType":"address","name":"to","type":"address"}],"name":"withdrawTokens","outputs":[],"stateMutability":"nonpayable","type":"function"},{"stateMutability":"payable","type":"receive"}],"evm":{"bytecode":{"linkReferences":{},"object":"6080806040523461005b5760008054336001600160a01b0319821681178355916001600160a01b03909116907f8be0079c531659141344cd1fd0a4f28419497f9722a3daafe3b4186f6b6457e09080a361125e90816100618239f35b600080fdfe6080604052600436101561001b575b361561001957600080fd5b005b60003560e01c80630a340be414610cf657806317e0adea14610c9f57806336118b5214610c455780633d850bb414610a3a578063715018a6146109e15780637ec6cfca146108b35780637f885b05146103ce57806384a1c233146103265780638da5cb5b146102fd5780639bc5c509146101675763f2fde38b0361000e5734610162576020366003190112610162576100b2610e75565b6100ba610f80565b6001600160a01b0390811690811561010e57600054826bffffffffffffffffffffffff60a01b821617600055167f8be0079c531659141344cd1fd0a4f28419497f9722a3daafe3b4186f6b6457e0600080a3005b60405162461bcd60e51b815260206004820152602660248201527f4f776e61626c653a206e6577206f776e657220697320746865207a65726f206160448201526564647265737360d01b6064820152608490fd5b600080fd5b3461016257606036600319011261016257610180610e75565b6001600160a01b0360443581811692908390036101625761019f610f80565b1690604051906020928383019163a9059cbb60e01b83526024840152602435604484015260448352608083019183831067ffffffffffffffff8411176102e7576000809161025095856040526101f486610d3e565b8786527f5361666545524332303a206c6f772d6c6576656c2063616c6c206661696c656460a0820152519082855af13d156102df573d9161023483610d7c565b926102426040519485610d5a565b83523d60008785013e61118b565b80518281159182156102bf575b505090501561026857005b6084906040519062461bcd60e51b82526004820152602a60248201527f5361666545524332303a204552433230206f7065726174696f6e20646964206e6044820152691bdd081cdd58d8d9595960b21b6064820152fd5b83809293500103126101625781015180151581036101625780828461025d565b60609161118b565b634e487b7160e01b600052604160045260246000fd5b34610162576000366003190112610162576000546040516001600160a01b039091168152602090f35b346101625761034c602061033936610dcf565b8160405193828580945193849201610e0e565b8101600181520301902060018060a01b0380825416906001830154169160028101546103bd60405161038c816103858160038801610eea565b0382610d5a565b60ff60056004860154950154169260405196879687526020870152604086015260c0606086015260c0850190610e8b565b916080840152151560a08301520390f35b34610162576080366003190112610162576103e7610e75565b6103ef610e5f565b9060643567ffffffffffffffff811161016257610410903690600401610e31565b906001600160a01b0383811615610862578085161561080d57604435156107bc57821561076b57612a2360f11b9461044785611024565b6104f4602561045584611024565b926104616044356110cb565b9361046b426110cb565b90604051958693602085019d8e5261048d815180926020602289019101610e0e565b840191605f60f81b928360228201526104b0825180936020602385019101610e0e565b018260238201526104cb825180936020602485019101610e0e565b019060248201526104e58251809360208785019101610e0e565b01036005810184520182610d5a565b6040519061050182610d22565b83871682526020820197848416895261055060206040850192604435845261052a368b8b610d98565b9460608701958652426080880152600060a0880152604051938492839251928391610e0e565b8101600181520301902098858451166bffffffffffffffffffffffff60a01b90818c5416178b558660018c01925116908254161790555160028901555196875167ffffffffffffffff81116102e7576105ac6003830154610eb0565b98601f8a11610724575b87989950600097969750602090601f831160011461067e57600587959294847f49f02c5bd2adc97e9f11f8347a81f9cd1f5ea1ff7c3214078559123c6df009799b989560609a9760a095600092610673575b50508160011b916000199060031b1c19161760038201555b6080840151600482015501910151151560ff8019835416911617905560405195869460443586526040602087015281604087015286860137600084890186015216961694601f01601f19168101030190a3005b015190508f80610608565b979594939291906003830160005260206000209860005b601f198416811061070957508695936001847f49f02c5bd2adc97e9f11f8347a81f9cd1f5ea1ff7c3214078559123c6df009799c60a09560059560609d9c9a98601f198116106106f0575b505050811b016003820155610620565b015160001960f88460031b161c191690558f80806106e0565b828201518b556001909a01998b995060209283019201610695565b600383016000526020600020601f830160051c810160208410610764575b601f8c0160051c820181106107585750506105b6565b60008155600101610742565b5080610742565b60405162461bcd60e51b8152602060048201526024808201527f4d6f636b4f666652616d7050726f76696465723a20696e76616c69642064657460448201526361696c7360e01b6064820152608490fd5b60405162461bcd60e51b815260206004820152602360248201527f4d6f636b4f666652616d7050726f76696465723a20696e76616c696420616d6f6044820152621d5b9d60ea1b6064820152608490fd5b60405162461bcd60e51b815260206004820152602760248201527f4d6f636b4f666652616d7050726f76696465723a20696e76616c696420737461604482015266313632b1b7b4b760c91b6064820152608490fd5b60405162461bcd60e51b815260206004820152602360248201527f4d6f636b4f666652616d7050726f76696465723a20696e76616c69642073656e6044820152623232b960e91b6064820152608490fd5b34610162576020806003193601126101625760043567ffffffffffffffff8111610162576108e682913690600401610e31565b9190600060a06040516108f881610d22565b82815282858201528260408201526060808201528260808201520152826040519384928337810160018152030190206040519061093482610d22565b60018060a01b03928382541683526109ce84600184015416828501908152600284015460408601908152866040519261097b846109748160038b01610eea565b0385610d5a565b6060880193845260ff600560048901549860808b01998a520154169560a089019615158752604051998a99828b52511690890152511660408701525160608601525160c0608086015260e0850190610e8b565b915160a084015251151560c08301520390f35b34610162576000366003190112610162576109fa610f80565b600080546001600160a01b0319811682556001600160a01b03167f8be0079c531659141344cd1fd0a4f28419497f9722a3daafe3b4186f6b6457e08280a3005b34610162576020806003193601126101625760043567ffffffffffffffff811161016257610a6c903690600401610e31565b91610a75610f80565b8215610bf05760405183838237818185810160018152030190209160018060a01b038084541615610b9b576005840180549060ff8216610b3e5791610b39917faaac0d22645c9e9dafca4a9a7971968c29b6b8255a89f52fe24f81bee2f1435a959493600160ff1980931617905560016040518986823786818b810160028152030190209182541617905560018601541695600286015492816040519283928337810160008152039020946040805194859485528401526003604084019101610eea565b0390a3005b60405162461bcd60e51b815260048101869052602f60248201527f4d6f636b4f666652616d7050726f76696465723a207472616e7366657220616c60448201526e1c9958591e481c1c9bd8d95cdcd959608a1b6064820152608490fd5b60405162461bcd60e51b815260048101849052602760248201527f4d6f636b4f666652616d7050726f76696465723a207472616e73666572206e6f6044820152661d08199bdd5b9960ca1b6064820152608490fd5b6084906040519062461bcd60e51b82526004820152602860248201527f4d6f636b4f666652616d7050726f76696465723a20696e76616c6964207472616044820152671b9cd9995c88125160c21b6064820152fd5b34610162576040366003190112610162576000808080600435610c66610e5f565b610c6e610f80565b82908215610c95575b6001600160a01b031690f115610c8957005b6040513d6000823e3d90fd5b6108fc9150610c77565b346101625760203660031901126101625760043567ffffffffffffffff81116101625760ff6020610cd581933690600401610e31565b91908260405193849283378101600281520301902054166040519015158152f35b3461016257602060ff610d0c8261033936610dcf565b8101600281520301902054166040519015158152f35b60c0810190811067ffffffffffffffff8211176102e757604052565b6040810190811067ffffffffffffffff8211176102e757604052565b90601f8019910116810190811067ffffffffffffffff8211176102e757604052565b67ffffffffffffffff81116102e757601f01601f191660200190565b929192610da482610d7c565b91610db26040519384610d5a565b829481845281830111610162578281602093846000960137010152565b6020600319820112610162576004359067ffffffffffffffff8211610162578060238301121561016257816024610e0b93600401359101610d98565b90565b60005b838110610e215750506000910152565b8181015183820152602001610e11565b9181601f840112156101625782359167ffffffffffffffff8311610162576020838186019501011161016257565b602435906001600160a01b038216820361016257565b600435906001600160a01b038216820361016257565b90602091610ea481518092818552858086019101610e0e565b601f01601f1916010190565b90600182811c92168015610ee0575b6020831014610eca57565b634e487b7160e01b600052602260045260246000fd5b91607f1691610ebf565b9060009291805491610efb83610eb0565b918282526001938481169081600014610f5d5750600114610f1d575b50505050565b90919394506000526020928360002092846000945b838610610f49575050505001019038808080610f17565b805485870183015294019385908201610f32565b9294505050602093945060ff191683830152151560051b01019038808080610f17565b6000546001600160a01b03163303610f9457565b606460405162461bcd60e51b815260206004820152602060248201527f4f776e61626c653a2063616c6c6572206973206e6f7420746865206f776e65726044820152fd5b6000198114610fe75760010190565b634e487b7160e01b600052601160045260246000fd5b90815181101561100e570160200190565b634e487b7160e01b600052603260045260246000fd5b6040519061103182610d3e565b60148083526020368185013760005b81811061104d5750505090565b601390808203918211610fe757600382901b916001600160fd1b03811603610fe75760ff8211610fe7576001821b156110b5576110b0916001600160a01b038516901c60f81b6001600160f81b03191660001a6110aa8287610ffd565b53610fd8565b611040565b634e487b7160e01b600052601260045260246000fd5b801561116d5780816000925b61115757506110e582610d7c565b916110f36040519384610d5a565b80835281601f1961110383610d7c565b013660208601375b61111457505090565b6000198101908111610fe7578091600a9160308383068101809111610fe75760f81b6001600160f81b03191660001a9061114e9086610ffd565b5304908161110b565b9091611164600a91610fd8565b929104806110d7565b5060405161117a81610d3e565b60018152600360fc1b602082015290565b919290156111ed575081511561119f575090565b3b156111a85790565b60405162461bcd60e51b815260206004820152601d60248201527f416464726573733a2063616c6c20746f206e6f6e2d636f6e74726163740000006044820152606490fd5b8251909150156112005750805190602001fd5b60405162461bcd60e51b815260206004820152908190611224906024830190610e8b565b0390fdfea2646970667358221220899da44b276e36d70499d9477fa59e91ca82e80b9e5a47b0219963f6d1afa00964736f6c63430008130033","opcodes":"PUSH1 0x80 DUP1 PUSH1 0x40 MSTORE CALLVALUE PUSH2 0x5B JUMPI PUSH1 0x0 DUP1 SLOAD CALLER PUSH1 0x1 PUSH1 0x1 PUSH1 0xA0 SHL SUB NOT DUP3 AND DUP2 OR DUP4 SSTORE SWAP2 PUSH1 0x1 PUSH1 0x1 PUSH1 0xA0 SHL SUB SWAP1 SWAP2 AND SWAP1 PUSH32 0x8BE0079C531659141344CD1FD0A4F28419497F9722A3DAAFE3B4186F6B6457E0 SWAP1 DUP1 LOG3 PUSH2 0x125E SWAP1 DUP2 PUSH2 0x61 DUP3 CODECOPY RETURN JUMPDEST PUSH1 0x0 DUP1 REVERT INVALID PUSH1 0x80 PUSH1 0x40 MSTORE PUSH1 0x4 CALLDATASIZE LT ISZERO PUSH2 0x1B JUMPI JUMPDEST CALLDATASIZE ISZERO PUSH2 0x19 JUMPI PUSH1 0x0 DUP1 REVERT JUMPDEST STOP JUMPDEST PUSH1 0x0 CALLDATALOAD PUSH1 0xE0 SHR DUP1 PUSH4 0xA340BE4 EQ PUSH2 0xCF6 JUMPI DUP1 PUSH4 0x17E0ADEA EQ PUSH2 0xC9F JUMPI DUP1 PUSH4 0x36118B52 EQ PUSH2 0xC45 JUMPI DUP1 PUSH4 0x3D850BB4 EQ PUSH2 0xA3A JUMPI DUP1 PUSH4 0x715018A6 EQ PUSH2 0x9E1 JUMPI DUP1 PUSH4 0x7EC6CFCA EQ PUSH2 0x8B3 JUMPI DUP1 PUSH4 0x7F885B05 EQ PUSH2 0x3CE JUMPI DUP1 PUSH4 0x84A1C233 EQ PUSH2 0x326 JUMPI DUP1 PUSH4 0x8DA5CB5B EQ PUSH2 0x2FD JUMPI DUP1 PUSH4 0x9BC5C509 EQ PUSH2 0x167 JUMPI PUSH4 0xF2FDE38B SUB PUSH2 0xE JUMPI CALLVALUE PUSH2 0x162 JUMPI PUSH1 0x20 CALLDATASIZE PUSH1 0x3 NOT ADD SLT PUSH2 0x162 JUMPI PUSH2 0xB2 PUSH2 0xE75 JUMP JUMPDEST PUSH2 0xBA PUSH2 0xF80 JUMP JUMPDEST PUSH1 0x1 PUSH1 0x1 PUSH1 0xA0 SHL SUB SWAP1 DUP2 AND SWAP1 DUP2 ISZERO PUSH2 0x10E JUMPI PUSH1 0x0 SLOAD DUP3 PUSH12 0xFFFFFFFFFFFFFFFFFFFFFFFF PUSH1 0xA0 SHL DUP3 AND OR PUSH1 0x0 SSTORE AND PUSH32 0x8BE0079C531659141344CD1FD0A4F28419497F9722A3DAAFE3B4186F6B6457E0 PUSH1 0x0 DUP1 LOG3 STOP JUMPDEST PUSH1 0x40 MLOAD PUSH3 0x461BCD PUSH1 0xE5 SHL DUP2 MSTORE PUSH1 0x20 PUSH1 0x4 DUP3 ADD MSTORE PUSH1 0x26 PUSH1 0x24 DUP3 ADD MSTORE PUSH32 0x4F776E61626C653A206E6577206F776E657220697320746865207A65726F2061 PUSH1 0x44 DUP3 ADD MSTORE PUSH6 0x646472657373 PUSH1 0xD0 SHL PUSH1 0x64 DUP3 ADD MSTORE PUSH1 0x84 SWAP1 REVERT JUMPDEST PUSH1 0x0 DUP1 REVERT JUMPDEST CALLVALUE PUSH2 0x162 JUMPI PUSH1 0x60 CALLDATASIZE PUSH1 0x3 NOT ADD SLT PUSH2 0x162 JUMPI PUSH2 0x180 PUSH2 0xE75 JUMP JUMPDEST PUSH1 0x1 PUSH1 0x1 PUSH1 0xA0 SHL SUB PUSH1 0x44 CALLDATALOAD DUP2 DUP2 AND SWAP3 SWAP1 DUP4 SWAP1 SUB PUSH2 0x162 JUMPI PUSH2 0x19F PUSH2 0xF80 JUMP JUMPDEST AND SWAP1 PUSH1 0x40 MLOAD SWAP1 PUSH1 0x20 SWAP3 DUP4 DUP4 ADD SWAP2 PUSH4 0xA9059CBB PUSH1 0xE0 SHL DUP4 MSTORE PUSH1 0x24 DUP5 ADD MSTORE PUSH1 0x24 CALLDATALOAD PUSH1 0x44 DUP5 ADD MSTORE PUSH1 0x44 DUP4 MSTORE PUSH1 0x80 DUP4 ADD SWAP2 DUP4 DUP4 LT PUSH8 0xFFFFFFFFFFFFFFFF DUP5 GT OR PUSH2 0x2E7 JUMPI PUSH1 0x0 DUP1 SWAP2 PUSH2 0x250 SWAP6 DUP6 PUSH1 0x40 MSTORE PUSH2 0x1F4 DUP7 PUSH2 0xD3E JUMP JUMPDEST DUP8 DUP7 MSTORE PUSH32 0x5361666545524332303A206C6F772D6C6576656C2063616C6C206661696C6564 PUSH1 0xA0 DUP3 ADD MSTORE MLOAD SWAP1 DUP3 DUP6 GAS CALL RETURNDATASIZE ISZERO PUSH2 0x2DF JUMPI RETURNDATASIZE SWAP2 PUSH2 0x234 DUP4 PUSH2 0xD7C JUMP JUMPDEST SWAP3 PUSH2 0x242 PUSH1 0x40 MLOAD SWAP5 DUP6 PUSH2 0xD5A JUMP JUMPDEST DUP4 MSTORE RETURNDATASIZE PUSH1 0x0 DUP8 DUP6 ADD RETURNDATACOPY PUSH2 0x118B JUMP JUMPDEST DUP1 MLOAD DUP3 DUP2 ISZERO SWAP2 DUP3 ISZERO PUSH2 0x2BF JUMPI JUMPDEST POP POP SWAP1 POP ISZERO PUSH2 0x268 JUMPI STOP JUMPDEST PUSH1 0x84 SWAP1 PUSH1 0x40 MLOAD SWAP1 PUSH3 0x461BCD PUSH1 0xE5 SHL DUP3 MSTORE PUSH1 0x4 DUP3 ADD MSTORE PUSH1 0x2A PUSH1 0x24 DUP3 ADD MSTORE PUSH32 0x5361666545524332303A204552433230206F7065726174696F6E20646964206E PUSH1 0x44 DUP3 ADD MSTORE PUSH10 0x1BDD081CDD58D8D95959 PUSH1 0xB2 SHL PUSH1 0x64 DUP3 ADD MSTORE REVERT JUMPDEST DUP4 DUP1 SWAP3 SWAP4 POP ADD SUB SLT PUSH2 0x162 JUMPI DUP2 ADD MLOAD DUP1 ISZERO ISZERO DUP2 SUB PUSH2 0x162 JUMPI DUP1 DUP3 DUP5 PUSH2 0x25D JUMP JUMPDEST PUSH1 0x60 SWAP2 PUSH2 0x118B JUMP JUMPDEST PUSH4 0x4E487B71 PUSH1 0xE0 SHL PUSH1 0x0 MSTORE PUSH1 0x41 PUSH1 0x4 MSTORE PUSH1 0x24 PUSH1 0x0 REVERT JUMPDEST CALLVALUE PUSH2 0x162 JUMPI PUSH1 0x0 CALLDATASIZE PUSH1 0x3 NOT ADD SLT PUSH2 0x162 JUMPI PUSH1 0x0 SLOAD PUSH1 0x40 MLOAD PUSH1 0x1 PUSH1 0x1 PUSH1 0xA0 SHL SUB SWAP1 SWAP2 AND DUP2 MSTORE PUSH1 0x20 SWAP1 RETURN JUMPDEST CALLVALUE PUSH2 0x162 JUMPI PUSH2 0x34C PUSH1 0x20 PUSH2 0x339 CALLDATASIZE PUSH2 0xDCF JUMP JUMPDEST DUP2 PUSH1 0x40 MLOAD SWAP4 DUP3 DUP6 DUP1 SWAP5 MLOAD SWAP4 DUP5 SWAP3 ADD PUSH2 0xE0E JUMP JUMPDEST DUP2 ADD PUSH1 0x1 DUP2 MSTORE SUB ADD SWAP1 KECCAK256 PUSH1 0x1 DUP1 PUSH1 0xA0 SHL SUB DUP1 DUP3 SLOAD AND SWAP1 PUSH1 0x1 DUP4 ADD SLOAD AND SWAP2 PUSH1 0x2 DUP2 ADD SLOAD PUSH2 0x3BD PUSH1 0x40 MLOAD PUSH2 0x38C DUP2 PUSH2 0x385 DUP2 PUSH1 0x3 DUP9 ADD PUSH2 0xEEA JUMP JUMPDEST SUB DUP3 PUSH2 0xD5A JUMP JUMPDEST PUSH1 0xFF PUSH1 0x5 PUSH1 0x4 DUP7 ADD SLOAD SWAP6 ADD SLOAD AND SWAP3 PUSH1 0x40 MLOAD SWAP7 DUP8 SWAP7 DUP8 MSTORE PUSH1 0x20 DUP8 ADD MSTORE PUSH1 0x40 DUP7 ADD MSTORE PUSH1 0xC0 PUSH1 0x60 DUP7 ADD MSTORE PUSH1 0xC0 DUP6 ADD SWAP1 PUSH2 0xE8B JUMP JUMPDEST SWAP2 PUSH1 0x80 DUP5 ADD MSTORE ISZERO ISZERO PUSH1 0xA0 DUP4 ADD MSTORE SUB SWAP1 RETURN JUMPDEST CALLVALUE PUSH2 0x162 JUMPI PUSH1 0x80 CALLDATASIZE PUSH1 0x3 NOT ADD SLT PUSH2 0x162 JUMPI PUSH2 0x3E7 PUSH2 0xE75 JUMP JUMPDEST PUSH2 0x3EF PUSH2 0xE5F JUMP JUMPDEST SWAP1 PUSH1 0x64 CALLDATALOAD PUSH8 0xFFFFFFFFFFFFFFFF DUP2 GT PUSH2 0x162 JUMPI PUSH2 0x410 SWAP1 CALLDATASIZE SWAP1 PUSH1 0x4 ADD PUSH2 0xE31 JUMP JUMPDEST SWAP1 PUSH1 0x1 PUSH1 0x1 PUSH1 0xA0 SHL SUB DUP4 DUP2 AND ISZERO PUSH2 0x862 JUMPI DUP1 DUP6 AND ISZERO PUSH2 0x80D JUMPI PUSH1 0x44 CALLDATALOAD ISZERO PUSH2 0x7BC JUMPI DUP3 ISZERO PUSH2 0x76B JUMPI PUSH2 0x2A23 PUSH1 0xF1 SHL SWAP5 PUSH2 0x447 DUP6 PUSH2 0x1024 JUMP JUMPDEST PUSH2 0x4F4 PUSH1 0x25 PUSH2 0x455 DUP5 PUSH2 0x1024 JUMP JUMPDEST SWAP3 PUSH2 0x461 PUSH1 0x44 CALLDATALOAD PUSH2 0x10CB JUMP JUMPDEST SWAP4 PUSH2 0x46B TIMESTAMP PUSH2 0x10CB JUMP JUMPDEST SWAP1 PUSH1 0x40 MLOAD SWAP6 DUP7 SWAP4 PUSH1 0x20 DUP6 ADD SWAP14 DUP15 MSTORE PUSH2 0x48D DUP2 MLOAD DUP1 SWAP3 PUSH1 0x20 PUSH1 0x22 DUP10 ADD SWAP2 ADD PUSH2 0xE0E JUMP JUMPDEST DUP5 ADD SWAP2 PUSH1 0x5F PUSH1 0xF8 SHL SWAP3 DUP4 PUSH1 0x22 DUP3 ADD MSTORE PUSH2 0x4B0 DUP3 MLOAD DUP1 SWAP4 PUSH1 0x20 PUSH1 0x23 DUP6 ADD SWAP2 ADD PUSH2 0xE0E JUMP JUMPDEST ADD DUP3 PUSH1 0x23 DUP3 ADD MSTORE PUSH2 0x4CB DUP3 MLOAD DUP1 SWAP4 PUSH1 0x20 PUSH1 0x24 DUP6 ADD SWAP2 ADD PUSH2 0xE0E JUMP JUMPDEST ADD SWAP1 PUSH1 0x24 DUP3 ADD MSTORE PUSH2 0x4E5 DUP3 MLOAD DUP1 SWAP4 PUSH1 0x20 DUP8 DUP6 ADD SWAP2 ADD PUSH2 0xE0E JUMP JUMPDEST ADD SUB PUSH1 0x5 DUP2 ADD DUP5 MSTORE ADD DUP3 PUSH2 0xD5A JUMP JUMPDEST PUSH1 0x40 MLOAD SWAP1 PUSH2 0x501 DUP3 PUSH2 0xD22 JUMP JUMPDEST DUP4 DUP8 AND DUP3 MSTORE PUSH1 0x20 DUP3 ADD SWAP8 DUP5 DUP5 AND DUP10 MSTORE PUSH2 0x550 PUSH1 0x20 PUSH1 0x40 DUP6 ADD SWAP3 PUSH1 0x44 CALLDATALOAD DUP5 MSTORE PUSH2 0x52A CALLDATASIZE DUP12 DUP12 PUSH2 0xD98 JUMP JUMPDEST SWAP5 PUSH1 0x60 DUP8 ADD SWAP6 DUP7 MSTORE TIMESTAMP PUSH1 0x80 DUP9 ADD MSTORE PUSH1 0x0 PUSH1 0xA0 DUP9 ADD MSTORE PUSH1 0x40 MLOAD SWAP4 DUP5 SWAP3 DUP4 SWAP3 MLOAD SWAP3 DUP4 SWAP2 PUSH2 0xE0E JUMP JUMPDEST DUP2 ADD PUSH1 0x1 DUP2 MSTORE SUB ADD SWAP1 KECCAK256 SWAP9 DUP6 DUP5 MLOAD AND PUSH12 0xFFFFFFFFFFFFFFFFFFFFFFFF PUSH1 0xA0 SHL SWAP1 DUP2 DUP13 SLOAD AND OR DUP12 SSTORE DUP7 PUSH1 0x1 DUP13 ADD SWAP3 MLOAD AND SWAP1 DUP3 SLOAD AND OR SWAP1 SSTORE MLOAD PUSH1 0x2 DUP10 ADD SSTORE MLOAD SWAP7 DUP8 MLOAD PUSH8 0xFFFFFFFFFFFFFFFF DUP2 GT PUSH2 0x2E7 JUMPI PUSH2 0x5AC PUSH1 0x3 DUP4 ADD SLOAD PUSH2 0xEB0 JUMP JUMPDEST SWAP9 PUSH1 0x1F DUP11 GT PUSH2 0x724 JUMPI JUMPDEST DUP8 SWAP9 SWAP10 POP PUSH1 0x0 SWAP8 SWAP7 SWAP8 POP PUSH1 0x20 SWAP1 PUSH1 0x1F DUP4 GT PUSH1 0x1 EQ PUSH2 0x67E JUMPI PUSH1 0x5 DUP8 SWAP6 SWAP3 SWAP5 DUP5 PUSH32 0x49F02C5BD2ADC97E9F11F8347A81F9CD1F5EA1FF7C3214078559123C6DF00979 SWAP12 SWAP9 SWAP6 PUSH1 0x60 SWAP11 SWAP8 PUSH1 0xA0 SWAP6 PUSH1 0x0 SWAP3 PUSH2 0x673 JUMPI JUMPDEST POP POP DUP2 PUSH1 0x1 SHL SWAP2 PUSH1 0x0 NOT SWAP1 PUSH1 0x3 SHL SHR NOT AND OR PUSH1 0x3 DUP3 ADD SSTORE JUMPDEST PUSH1 0x80 DUP5 ADD MLOAD PUSH1 0x4 DUP3 ADD SSTORE ADD SWAP2 ADD MLOAD ISZERO ISZERO PUSH1 0xFF DUP1 NOT DUP4 SLOAD AND SWAP2 AND OR SWAP1 SSTORE PUSH1 0x40 MLOAD SWAP6 DUP7 SWAP5 PUSH1 0x44 CALLDATALOAD DUP7 MSTORE PUSH1 0x40 PUSH1 0x20 DUP8 ADD MSTORE DUP2 PUSH1 0x40 DUP8 ADD MSTORE DUP7 DUP7 ADD CALLDATACOPY PUSH1 0x0 DUP5 DUP10 ADD DUP7 ADD MSTORE AND SWAP7 AND SWAP5 PUSH1 0x1F ADD PUSH1 0x1F NOT AND DUP2 ADD SUB ADD SWAP1 LOG3 STOP JUMPDEST ADD MLOAD SWAP1 POP DUP16 DUP1 PUSH2 0x608 JUMP JUMPDEST SWAP8 SWAP6 SWAP5 SWAP4 SWAP3 SWAP2 SWAP1 PUSH1 0x3 DUP4 ADD PUSH1 0x0 MSTORE PUSH1 0x20 PUSH1 0x0 KECCAK256 SWAP9 PUSH1 0x0 JUMPDEST PUSH1 0x1F NOT DUP5 AND DUP2 LT PUSH2 0x709 JUMPI POP DUP7 SWAP6 SWAP4 PUSH1 0x1 DUP5 PUSH32 0x49F02C5BD2ADC97E9F11F8347A81F9CD1F5EA1FF7C3214078559123C6DF00979 SWAP13 PUSH1 0xA0 SWAP6 PUSH1 0x5 SWAP6 PUSH1 0x60 SWAP14 SWAP13 SWAP11 SWAP9 PUSH1 0x1F NOT DUP2 AND LT PUSH2 0x6F0 JUMPI JUMPDEST POP POP POP DUP2 SHL ADD PUSH1 0x3 DUP3 ADD SSTORE PUSH2 0x620 JUMP JUMPDEST ADD MLOAD PUSH1 0x0 NOT PUSH1 0xF8 DUP5 PUSH1 0x3 SHL AND SHR NOT AND SWAP1 SSTORE DUP16 DUP1 DUP1 PUSH2 0x6E0 JUMP JUMPDEST DUP3 DUP3 ADD MLOAD DUP12 SSTORE PUSH1 0x1 SWAP1 SWAP11 ADD SWAP10 DUP12 SWAP10 POP PUSH1 0x20 SWAP3 DUP4 ADD SWAP3 ADD PUSH2 0x695 JUMP JUMPDEST PUSH1 0x3 DUP4 ADD PUSH1 0x0 MSTORE PUSH1 0x20 PUSH1 0x0 KECCAK256 PUSH1 0x1F DUP4 ADD PUSH1 0x5 SHR DUP2 ADD PUSH1 0x20 DUP5 LT PUSH2 0x764 JUMPI JUMPDEST PUSH1 0x1F DUP13 ADD PUSH1 0x5 SHR DUP3 ADD DUP2 LT PUSH2 0x758 JUMPI POP POP PUSH2 0x5B6 JUMP JUMPDEST PUSH1 0x0 DUP2 SSTORE PUSH1 0x1 ADD PUSH2 0x742 JUMP JUMPDEST POP DUP1 PUSH2 0x742 JUMP JUMPDEST PUSH1 0x40 MLOAD PUSH3 0x461BCD PUSH1 0xE5 SHL DUP2 MSTORE PUSH1 0x20 PUSH1 0x4 DUP3 ADD MSTORE PUSH1 0x24 DUP1 DUP3 ADD MSTORE PUSH32 0x4D6F636B4F666652616D7050726F76696465723A20696E76616C696420646574 PUSH1 0x44 DUP3 ADD MSTORE PUSH4 0x61696C73 PUSH1 0xE0 SHL PUSH1 0x64 DUP3 ADD MSTORE PUSH1 0x84 SWAP1 REVERT JUMPDEST PUSH1 0x40 MLOAD PUSH3 0x461BCD PUSH1 0xE5 SHL DUP2 MSTORE PUSH1 0x20 PUSH1 0x4 DUP3 ADD MSTORE PUSH1 0x23 PUSH1 0x24 DUP3 ADD MSTORE PUSH32 0x4D6F636B4F666652616D7050726F76696465723A20696E76616C696420616D6F PUSH1 0x44 DUP3 ADD MSTORE PUSH3 0x1D5B9D PUSH1 0xEA SHL PUSH1 0x64 DUP3 ADD MSTORE PUSH1 0x84 SWAP1 REVERT JUMPDEST PUSH1 0x40 MLOAD PUSH3 0x461BCD PUSH1 0xE5 SHL DUP2 MSTORE PUSH1 0x20 PUSH1 0x4 DUP3 ADD MSTORE PUSH1 0x27 PUSH1 0x24 DUP3 ADD MSTORE PUSH32 0x4D6F636B4F666652616D7050726F76696465723A20696E76616C696420737461 PUSH1 0x44 DUP3 ADD MSTORE PUSH7 0x313632B1B7B4B7 PUSH1 0xC9 SHL PUSH1 0x64 DUP3 ADD MSTORE PUSH1 0x84 SWAP1 REVERT JUMPDEST PUSH1 0x40 MLOAD PUSH3 0x461BCD PUSH1 0xE5 SHL DUP2 MSTORE PUSH1 0x20 PUSH1 0x4 DUP3 ADD MSTORE PUSH1 0x23 PUSH1 0x24 DUP3 ADD MSTORE PUSH32 0x4D6F636B4F666652616D7050726F76696465723A20696E76616C69642073656E PUSH1 0x44 DUP3 ADD MSTORE PUSH3 0x3232B9 PUSH1 0xE9 SHL PUSH1 0x64 DUP3 ADD MSTORE PUSH1 0x84 SWAP1 REVERT JUMPDEST CALLVALUE PUSH2 0x162 JUMPI PUSH1 0x20 DUP1 PUSH1 0x3 NOT CALLDATASIZE ADD SLT PUSH2 0x162 JUMPI PUSH1 0x4 CALLDATALOAD PUSH8 0xFFFFFFFFFFFFFFFF DUP2 GT PUSH2 0x162 JUMPI PUSH2 0x8E6 DUP3 SWAP2 CALLDATASIZE SWAP1 PUSH1 0x4 ADD PUSH2 0xE31 JUMP JUMPDEST SWAP2 SWAP1 PUSH1 0x0 PUSH1 0xA0 PUSH1 0x40 MLOAD PUSH2 0x8F8 DUP2 PUSH2 0xD22 JUMP JUMPDEST DUP3 DUP2 MSTORE DUP3 DUP6 DUP3 ADD MSTORE DUP3 PUSH1 0x40 DUP3 ADD MSTORE PUSH1 0x60 DUP1 DUP3 ADD MSTORE DUP3 PUSH1 0x80 DUP3 ADD MSTORE ADD MSTORE DUP3 PUSH1 0x40 MLOAD SWAP4 DUP5 SWAP3 DUP4 CALLDATACOPY DUP2 ADD PUSH1 0x1 DUP2 MSTORE SUB ADD SWAP1 KECCAK256 PUSH1 0x40 MLOAD SWAP1 PUSH2 0x934 DUP3 PUSH2 0xD22 JUMP JUMPDEST PUSH1 0x1 DUP1 PUSH1 0xA0 SHL SUB SWAP3 DUP4 DUP3 SLOAD AND DUP4 MSTORE PUSH2 0x9CE DUP5 PUSH1 0x1 DUP5 ADD SLOAD AND DUP3 DUP6 ADD SWAP1 DUP2 MSTORE PUSH1 0x2 DUP5 ADD SLOAD PUSH1 0x40 DUP7 ADD SWAP1 DUP2 MSTORE DUP7 PUSH1 0x40 MLOAD SWAP3 PUSH2 0x97B DUP5 PUSH2 0x974 DUP2 PUSH1 0x3 DUP12 ADD PUSH2 0xEEA JUMP JUMPDEST SUB DUP6 PUSH2 0xD5A JUMP JUMPDEST PUSH1 0x60 DUP9 ADD SWAP4 DUP5 MSTORE PUSH1 0xFF PUSH1 0x5 PUSH1 0x4 DUP10 ADD SLOAD SWAP9 PUSH1 0x80 DUP12 ADD SWAP10 DUP11 MSTORE ADD SLOAD AND SWAP6 PUSH1 0xA0 DUP10 ADD SWAP7 ISZERO ISZERO DUP8 MSTORE PUSH1 0x40 MLOAD SWAP10 DUP11 SWAP10 DUP3 DUP12 MSTORE MLOAD AND SWAP1 DUP10 ADD MSTORE MLOAD AND PUSH1 0x40 DUP8 ADD MSTORE MLOAD PUSH1 0x60 DUP7 ADD MSTORE MLOAD PUSH1 0xC0 PUSH1 0x80 DUP7 ADD MSTORE PUSH1 0xE0 DUP6 ADD SWAP1 PUSH2 0xE8B JUMP JUMPDEST SWAP2 MLOAD PUSH1 0xA0 DUP5 ADD MSTORE MLOAD ISZERO ISZERO PUSH1 0xC0 DUP4 ADD MSTORE SUB SWAP1 RETURN JUMPDEST CALLVALUE PUSH2 0x162 JUMPI PUSH1 0x0 CALLDATASIZE PUSH1 0x3 NOT ADD SLT PUSH2 0x162 JUMPI PUSH2 0x9FA PUSH2 0xF80 JUMP JUMPDEST PUSH1 0x0 DUP1 SLOAD PUSH1 0x1 PUSH1 0x1 PUSH1 0xA0 SHL SUB NOT DUP2 AND DUP3 SSTORE PUSH1 0x1 PUSH1 0x1 PUSH1 0xA0 SHL SUB AND PUSH32 0x8BE0079C531659141344CD1FD0A4F28419497F9722A3DAAFE3B4186F6B6457E0 DUP3 DUP1 LOG3 STOP JUMPDEST CALLVALUE PUSH2 0x162 JUMPI PUSH1 0x20 DUP1 PUSH1 0x3 NOT CALLDATASIZE ADD SLT PUSH2 0x162 JUMPI PUSH1 0x4 CALLDATALOAD PUSH8 0xFFFFFFFFFFFFFFFF DUP2 GT PUSH2 0x162 JUMPI PUSH2 0xA6C SWAP1 CALLDATASIZE SWAP1 PUSH1 0x4 ADD PUSH2 0xE31 JUMP JUMPDEST SWAP2 PUSH2 0xA75 PUSH2 0xF80 JUMP JUMPDEST DUP3 ISZERO PUSH2 0xBF0 JUMPI PUSH1 0x40 MLOAD DUP4 DUP4 DUP3 CALLDATACOPY DUP2 DUP2 DUP6 DUP2 ADD PUSH1 0x1 DUP2 MSTORE SUB ADD SWAP1 KECCAK256 SWAP2 PUSH1 0x1 DUP1 PUSH1 0xA0 SHL SUB DUP1 DUP5 SLOAD AND ISZERO PUSH2 0xB9B JUMPI PUSH1 0x5 DUP5 ADD DUP1 SLOAD SWAP1 PUSH1 0xFF DUP3 AND PUSH2 0xB3E JUMPI SWAP2 PUSH2 0xB39 SWAP2 PUSH32 0xAAAC0D22645C9E9DAFCA4A9A7971968C29B6B8255A89F52FE24F81BEE2F1435A SWAP6 SWAP5 SWAP4 PUSH1 0x1 PUSH1 0xFF NOT DUP1 SWAP4 AND OR SWAP1 SSTORE PUSH1 0x1 PUSH1 0x40 MLOAD DUP10 DUP7 DUP3 CALLDATACOPY DUP7 DUP2 DUP12 DUP2 ADD PUSH1 0x2 DUP2 MSTORE SUB ADD SWAP1 KECCAK256 SWAP2 DUP3 SLOAD AND OR SWAP1 SSTORE PUSH1 0x1 DUP7 ADD SLOAD AND SWAP6 PUSH1 0x2 DUP7 ADD SLOAD SWAP3 DUP2 PUSH1 0x40 MLOAD SWAP3 DUP4 SWAP3 DUP4 CALLDATACOPY DUP2 ADD PUSH1 0x0 DUP2 MSTORE SUB SWAP1 KECCAK256 SWAP5 PUSH1 0x40 DUP1 MLOAD SWAP5 DUP6 SWAP5 DUP6 MSTORE DUP5 ADD MSTORE PUSH1 0x3 PUSH1 0x40 DUP5 ADD SWAP2 ADD PUSH2 0xEEA JUMP JUMPDEST SUB SWAP1 LOG3 STOP JUMPDEST PUSH1 0x40 MLOAD PUSH3 0x461BCD PUSH1 0xE5 SHL DUP2 MSTORE PUSH1 0x4 DUP2 ADD DUP7 SWAP1 MSTORE PUSH1 0x2F PUSH1 0x24 DUP3 ADD MSTORE PUSH32 0x4D6F636B4F666652616D7050726F76696465723A207472616E7366657220616C PUSH1 0x44 DUP3 ADD MSTORE PUSH15 0x1C9958591E481C1C9BD8D95CDCD959 PUSH1 0x8A SHL PUSH1 0x64 DUP3 ADD MSTORE PUSH1 0x84 SWAP1 REVERT JUMPDEST PUSH1 0x40 MLOAD PUSH3 0x461BCD PUSH1 0xE5 SHL DUP2 MSTORE PUSH1 0x4 DUP2 ADD DUP5 SWAP1 MSTORE PUSH1 0x27 PUSH1 0x24 DUP3 ADD MSTORE PUSH32 0x4D6F636B4F666652616D7050726F76696465723A207472616E73666572206E6F PUSH1 0x44 DUP3 ADD MSTORE PUSH7 0x1D08199BDD5B99 PUSH1 0xCA SHL PUSH1 0x64 DUP3 ADD MSTORE PUSH1 0x84 SWAP1 REVERT JUMPDEST PUSH1 0x84 SWAP1 PUSH1 0x40 MLOAD SWAP1 PUSH3 0x461BCD PUSH1 0xE5 SHL DUP3 MSTORE PUSH1 0x4 DUP3 ADD MSTORE PUSH1 0x28 PUSH1 0x24 DUP3 ADD MSTORE PUSH32 0x4D6F636B4F666652616D7050726F76696465723A20696E76616C696420747261 PUSH1 0x44 DUP3 ADD MSTORE PUSH8 0x1B9CD9995C881251 PUSH1 0xC2 SHL PUSH1 0x64 DUP3 ADD MSTORE REVERT JUMPDEST CALLVALUE PUSH2 0x162 JUMPI PUSH1 0x40 CALLDATASIZE PUSH1 0x3 NOT ADD SLT PUSH2 0x162 JUMPI PUSH1 0x0 DUP1 DUP1 DUP1 PUSH1 0x4 CALLDATALOAD PUSH2 0xC66 PUSH2 0xE5F JUMP JUMPDEST PUSH2 0xC6E PUSH2 0xF80 JUMP JUMPDEST DUP3 SWAP1 DUP3 ISZERO PUSH2 0xC95 JUMPI JUMPDEST PUSH1 0x1 PUSH1 0x1 PUSH1 0xA0 SHL SUB AND SWAP1 CALL ISZERO PUSH2 0xC89 JUMPI STOP JUMPDEST PUSH1 0x40 MLOAD RETURNDATASIZE PUSH1 0x0 DUP3 RETURNDATACOPY RETURNDATASIZE SWAP1 REVERT JUMPDEST PUSH2 0x8FC SWAP2 POP PUSH2 0xC77 JUMP JUMPDEST CALLVALUE PUSH2 0x162 JUMPI PUSH1 0x20 CALLDATASIZE PUSH1 0x3 NOT ADD SLT PUSH2 0x162 JUMPI PUSH1 0x4 CALLDATALOAD PUSH8 0xFFFFFFFFFFFFFFFF DUP2 GT PUSH2 0x162 JUMPI PUSH1 0xFF PUSH1 0x20 PUSH2 0xCD5 DUP2 SWAP4 CALLDATASIZE SWAP1 PUSH1 0x4 ADD PUSH2 0xE31 JUMP JUMPDEST SWAP2 SWAP1 DUP3 PUSH1 0x40 MLOAD SWAP4 DUP5 SWAP3 DUP4 CALLDATACOPY DUP2 ADD PUSH1 0x2 DUP2 MSTORE SUB ADD SWAP1 KECCAK256 SLOAD AND PUSH1 0x40 MLOAD SWAP1 ISZERO ISZERO DUP2 MSTORE RETURN JUMPDEST CALLVALUE PUSH2 0x162 JUMPI PUSH1 0x20 PUSH1 0xFF PUSH2 0xD0C DUP3 PUSH2 0x339 CALLDATASIZE PUSH2 0xDCF JUMP JUMPDEST DUP2 ADD PUSH1 0x2 DUP2 MSTORE SUB ADD SWAP1 KECCAK256 SLOAD AND PUSH1 0x40 MLOAD SWAP1 ISZERO ISZERO DUP2 MSTORE RETURN JUMPDEST PUSH1 0xC0 DUP2 ADD SWAP1 DUP2 LT PUSH8 0xFFFFFFFFFFFFFFFF DUP3 GT OR PUSH2 0x2E7 JUMPI PUSH1 0x40 MSTORE JUMP JUMPDEST PUSH1 0x40 DUP2 ADD SWAP1 DUP2 LT PUSH8 0xFFFFFFFFFFFFFFFF DUP3 GT OR PUSH2 0x2E7 JUMPI PUSH1 0x40 MSTORE JUMP JUMPDEST SWAP1 PUSH1 0x1F DUP1 NOT SWAP2 ADD AND DUP2 ADD SWAP1 DUP2 LT PUSH8 0xFFFFFFFFFFFFFFFF DUP3 GT OR PUSH2 0x2E7 JUMPI PUSH1 0x40 MSTORE JUMP JUMPDEST PUSH8 0xFFFFFFFFFFFFFFFF DUP2 GT PUSH2 0x2E7 JUMPI PUSH1 0x1F ADD PUSH1 0x1F NOT AND PUSH1 0x20 ADD SWAP1 JUMP JUMPDEST SWAP3 SWAP2 SWAP3 PUSH2 0xDA4 DUP3 PUSH2 0xD7C JUMP JUMPDEST SWAP2 PUSH2 0xDB2 PUSH1 0x40 MLOAD SWAP4 DUP5 PUSH2 0xD5A JUMP JUMPDEST DUP3 SWAP5 DUP2 DUP5 MSTORE DUP2 DUP4 ADD GT PUSH2 0x162 JUMPI DUP3 DUP2 PUSH1 0x20 SWAP4 DUP5 PUSH1 0x0 SWAP7 ADD CALLDATACOPY ADD ADD MSTORE JUMP JUMPDEST PUSH1 0x20 PUSH1 0x3 NOT DUP3 ADD SLT PUSH2 0x162 JUMPI PUSH1 0x4 CALLDATALOAD SWAP1 PUSH8 0xFFFFFFFFFFFFFFFF DUP3 GT PUSH2 0x162 JUMPI DUP1 PUSH1 0x23 DUP4 ADD SLT ISZERO PUSH2 0x162 JUMPI DUP2 PUSH1 0x24 PUSH2 0xE0B SWAP4 PUSH1 0x4 ADD CALLDATALOAD SWAP2 ADD PUSH2 0xD98 JUMP JUMPDEST SWAP1 JUMP JUMPDEST PUSH1 0x0 JUMPDEST DUP4 DUP2 LT PUSH2 0xE21 JUMPI POP POP PUSH1 0x0 SWAP2 ADD MSTORE JUMP JUMPDEST DUP2 DUP2 ADD MLOAD DUP4 DUP3 ADD MSTORE PUSH1 0x20 ADD PUSH2 0xE11 JUMP JUMPDEST SWAP2 DUP2 PUSH1 0x1F DUP5 ADD SLT ISZERO PUSH2 0x162 JUMPI DUP3 CALLDATALOAD SWAP2 PUSH8 0xFFFFFFFFFFFFFFFF DUP4 GT PUSH2 0x162 JUMPI PUSH1 0x20 DUP4 DUP2 DUP7 ADD SWAP6 ADD ADD GT PUSH2 0x162 JUMPI JUMP JUMPDEST PUSH1 0x24 CALLDATALOAD SWAP1 PUSH1 0x1 PUSH1 0x1 PUSH1 0xA0 SHL SUB DUP3 AND DUP3 SUB PUSH2 0x162 JUMPI JUMP JUMPDEST PUSH1 0x4 CALLDATALOAD SWAP1 PUSH1 0x1 PUSH1 0x1 PUSH1 0xA0 SHL SUB DUP3 AND DUP3 SUB PUSH2 0x162 JUMPI JUMP JUMPDEST SWAP1 PUSH1 0x20 SWAP2 PUSH2 0xEA4 DUP2 MLOAD DUP1 SWAP3 DUP2 DUP6 MSTORE DUP6 DUP1 DUP7 ADD SWAP2 ADD PUSH2 0xE0E JUMP JUMPDEST PUSH1 0x1F ADD PUSH1 0x1F NOT AND ADD ADD SWAP1 JUMP JUMPDEST SWAP1 PUSH1 0x1 DUP3 DUP2 SHR SWAP3 AND DUP1 ISZERO PUSH2 0xEE0 JUMPI JUMPDEST PUSH1 0x20 DUP4 LT EQ PUSH2 0xECA JUMPI JUMP JUMPDEST PUSH4 0x4E487B71 PUSH1 0xE0 SHL PUSH1 0x0 MSTORE PUSH1 0x22 PUSH1 0x4 MSTORE PUSH1 0x24 PUSH1 0x0 REVERT JUMPDEST SWAP2 PUSH1 0x7F AND SWAP2 PUSH2 0xEBF JUMP JUMPDEST SWAP1 PUSH1 0x0 SWAP3 SWAP2 DUP1 SLOAD SWAP2 PUSH2 0xEFB DUP4 PUSH2 0xEB0 JUMP JUMPDEST SWAP2 DUP3 DUP3 MSTORE PUSH1 0x1 SWAP4 DUP5 DUP2 AND SWAP1 DUP2 PUSH1 0x0 EQ PUSH2 0xF5D JUMPI POP PUSH1 0x1 EQ PUSH2 0xF1D JUMPI JUMPDEST POP POP POP POP JUMP JUMPDEST SWAP1 SWAP2 SWAP4 SWAP5 POP PUSH1 0x0 MSTORE PUSH1 0x20 SWAP3 DUP4 PUSH1 0x0 KECCAK256 SWAP3 DUP5 PUSH1 0x0 SWAP5 JUMPDEST DUP4 DUP7 LT PUSH2 0xF49 JUMPI POP POP POP POP ADD ADD SWAP1 CODESIZE DUP1 DUP1 DUP1 PUSH2 0xF17 JUMP JUMPDEST DUP1 SLOAD DUP6 DUP8 ADD DUP4 ADD MSTORE SWAP5 ADD SWAP4 DUP6 SWAP1 DUP3 ADD PUSH2 0xF32 JUMP JUMPDEST SWAP3 SWAP5 POP POP POP PUSH1 0x20 SWAP4 SWAP5 POP PUSH1 0xFF NOT AND DUP4 DUP4 ADD MSTORE ISZERO ISZERO PUSH1 0x5 SHL ADD ADD SWAP1 CODESIZE DUP1 DUP1 DUP1 PUSH2 0xF17 JUMP JUMPDEST PUSH1 0x0 SLOAD PUSH1 0x1 PUSH1 0x1 PUSH1 0xA0 SHL SUB AND CALLER SUB PUSH2 0xF94 JUMPI JUMP JUMPDEST PUSH1 0x64 PUSH1 0x40 MLOAD PUSH3 0x461BCD PUSH1 0xE5 SHL DUP2 MSTORE PUSH1 0x20 PUSH1 0x4 DUP3 ADD MSTORE PUSH1 0x20 PUSH1 0x24 DUP3 ADD MSTORE PUSH32 0x4F776E61626C653A2063616C6C6572206973206E6F7420746865206F776E6572 PUSH1 0x44 DUP3 ADD MSTORE REVERT JUMPDEST PUSH1 0x0 NOT DUP2 EQ PUSH2 0xFE7 JUMPI PUSH1 0x1 ADD SWAP1 JUMP JUMPDEST PUSH4 0x4E487B71 PUSH1 0xE0 SHL PUSH1 0x0 MSTORE PUSH1 0x11 PUSH1 0x4 MSTORE PUSH1 0x24 PUSH1 0x0 REVERT JUMPDEST SWAP1 DUP2 MLOAD DUP2 LT ISZERO PUSH2 0x100E JUMPI ADD PUSH1 0x20 ADD SWAP1 JUMP JUMPDEST PUSH4 0x4E487B71 PUSH1 0xE0 SHL PUSH1 0x0 MSTORE PUSH1 0x32 PUSH1 0x4 MSTORE PUSH1 0x24 PUSH1 0x0 REVERT JUMPDEST PUSH1 0x40 MLOAD SWAP1 PUSH2 0x1031 DUP3 PUSH2 0xD3E JUMP JUMPDEST PUSH1 0x14 DUP1 DUP4 MSTORE PUSH1 0x20 CALLDATASIZE DUP2 DUP6 ADD CALLDATACOPY PUSH1 0x0 JUMPDEST DUP2 DUP2 LT PUSH2 0x104D JUMPI POP POP POP SWAP1 JUMP JUMPDEST PUSH1 0x13 SWAP1 DUP1 DUP3 SUB SWAP2 DUP3 GT PUSH2 0xFE7 JUMPI PUSH1 0x3 DUP3 SWAP1 SHL SWAP2 PUSH1 0x1 PUSH1 0x1 PUSH1 0xFD SHL SUB DUP2 AND SUB PUSH2 0xFE7 JUMPI PUSH1 0xFF DUP3 GT PUSH2 0xFE7 JUMPI PUSH1 0x1 DUP3 SHL ISZERO PUSH2 0x10B5 JUMPI PUSH2 0x10B0 SWAP2 PUSH1 0x1 PUSH1 0x1 PUSH1 0xA0 SHL SUB DUP6 AND SWAP1 SHR PUSH1 0xF8 SHL PUSH1 0x1 PUSH1 0x1 PUSH1 0xF8 SHL SUB NOT AND PUSH1 0x0 BYTE PUSH2 0x10AA DUP3 DUP8 PUSH2 0xFFD JUMP JUMPDEST MSTORE8 PUSH2 0xFD8 JUMP JUMPDEST PUSH2 0x1040 JUMP JUMPDEST PUSH4 0x4E487B71 PUSH1 0xE0 SHL PUSH1 0x0 MSTORE PUSH1 0x12 PUSH1 0x4 MSTORE PUSH1 0x24 PUSH1 0x0 REVERT JUMPDEST DUP1 ISZERO PUSH2 0x116D JUMPI DUP1 DUP2 PUSH1 0x0 SWAP3 JUMPDEST PUSH2 0x1157 JUMPI POP PUSH2 0x10E5 DUP3 PUSH2 0xD7C JUMP JUMPDEST SWAP2 PUSH2 0x10F3 PUSH1 0x40 MLOAD SWAP4 DUP5 PUSH2 0xD5A JUMP JUMPDEST DUP1 DUP4 MSTORE DUP2 PUSH1 0x1F NOT PUSH2 0x1103 DUP4 PUSH2 0xD7C JUMP JUMPDEST ADD CALLDATASIZE PUSH1 0x20 DUP7 ADD CALLDATACOPY JUMPDEST PUSH2 0x1114 JUMPI POP POP SWAP1 JUMP JUMPDEST PUSH1 0x0 NOT DUP2 ADD SWAP1 DUP2 GT PUSH2 0xFE7 JUMPI DUP1 SWAP2 PUSH1 0xA SWAP2 PUSH1 0x30 DUP4 DUP4 MOD DUP2 ADD DUP1 SWAP2 GT PUSH2 0xFE7 JUMPI PUSH1 0xF8 SHL PUSH1 0x1 PUSH1 0x1 PUSH1 0xF8 SHL SUB NOT AND PUSH1 0x0 BYTE SWAP1 PUSH2 0x114E SWAP1 DUP7 PUSH2 0xFFD JUMP JUMPDEST MSTORE8 DIV SWAP1 DUP2 PUSH2 0x110B JUMP JUMPDEST SWAP1 SWAP2 PUSH2 0x1164 PUSH1 0xA SWAP2 PUSH2 0xFD8 JUMP JUMPDEST SWAP3 SWAP2 DIV DUP1 PUSH2 0x10D7 JUMP JUMPDEST POP PUSH1 0x40 MLOAD PUSH2 0x117A DUP2 PUSH2 0xD3E JUMP JUMPDEST PUSH1 0x1 DUP2 MSTORE PUSH1 0x3 PUSH1 0xFC SHL PUSH1 0x20 DUP3 ADD MSTORE SWAP1 JUMP JUMPDEST SWAP2 SWAP3 SWAP1 ISZERO PUSH2 0x11ED JUMPI POP DUP2 MLOAD ISZERO PUSH2 0x119F JUMPI POP SWAP1 JUMP JUMPDEST EXTCODESIZE ISZERO PUSH2 0x11A8 JUMPI SWAP1 JUMP JUMPDEST PUSH1 0x40 MLOAD PUSH3 0x461BCD PUSH1 0xE5 SHL DUP2 MSTORE PUSH1 0x20 PUSH1 0x4 DUP3 ADD MSTORE PUSH1 0x1D PUSH1 0x24 DUP3 ADD MSTORE PUSH32 0x416464726573733A2063616C6C20746F206E6F6E2D636F6E7472616374000000 PUSH1 0x44 DUP3 ADD MSTORE PUSH1 0x64 SWAP1 REVERT JUMPDEST DUP3 MLOAD SWAP1 SWAP2 POP ISZERO PUSH2 0x1200 JUMPI POP DUP1 MLOAD SWAP1 PUSH1 0x20 ADD REVERT JUMPDEST PUSH1 0x40 MLOAD PUSH3 0x461BCD PUSH1 0xE5 SHL DUP2 MSTORE PUSH1 0x20 PUSH1 0x4 DUP3 ADD MSTORE SWAP1 DUP2 SWAP1 PUSH2 0x1224 SWAP1 PUSH1 0x24 DUP4 ADD SWAP1 PUSH2 0xE8B JUMP JUMPDEST SUB SWAP1 REVERT INVALID LOG2 PUSH5 0x6970667358 0x22 SLT KECCAK256 DUP10 SWAP14 LOG4 0x4B 0x27 PUSH15 0x36D70499D9477FA59E91CA82E80B9E GAS SELFBALANCE 0xB0 0x21 SWAP10 PUSH4 0xF6D1AFA0 MULMOD PUSH5 0x736F6C6343 STOP ADDMOD SGT STOP CALLER "},"methodIdentifiers":{"getTransfer(string)":"7ec6cfca","isTransferProcessed(string)":"17e0adea","owner()":"8da5cb5b","processTransfer(string)":"3d850bb4","processedTransfers(string)":"0a340be4","receiveTransfer(address,address,uint256,string)":"7f885b05","renounceOwnership()":"715018a6","transferOwnership(address)":"f2fde38b","transfers(string)":"84a1c233","withdrawETH(uint256,address)":"36118b52","withdrawTokens(address,uint256,address)":"9bc5c509"}}}}}