{
  "_format": "hh-sol-artifact-1",
  "contractName": "MockOffRampProvider",
  "sourceName": "contracts/mocks/MockOffRampProvider.sol",
  "abi": [
    {
      "inputs": [],
      "stateMutability": "nonpayable",
      "type": "constructor"
    },
    {
      "anonymous": false,
      "inputs": [
        {
          "indexed": true,
          "internalType": "address",
          "name": "previousOwner",
          "type": "address"
        },
        {
          "indexed": true,
          "internalType": "address",
          "name": "newOwner",
          "type": "address"
        }
      ],
      "name": "OwnershipTransferred",
      "type": "event"
    },
    {
      "anonymous": false,
      "inputs": [
        {
          "indexed": true,
          "internalType": "string",
          "name": "transferId",
          "type": "string"
        },
        {
          "indexed": true,
          "internalType": "address",
          "name": "stablecoin",
          "type": "address"
        },
        {
          "indexed": false,
          "internalType": "uint256",
          "name": "amount",
          "type": "uint256"
        },
        {
          "indexed": false,
          "internalType": "string",
          "name": "recipientDetails",
          "type": "string"
        }
      ],
      "name": "TransferProcessed",
      "type": "event"
    },
    {
      "anonymous": false,
      "inputs": [
        {
          "indexed": true,
          "internalType": "address",
          "name": "from",
          "type": "address"
        },
        {
          "indexed": true,
          "internalType": "address",
          "name": "stablecoin",
          "type": "address"
        },
        {
          "indexed": false,
          "internalType": "uint256",
          "name": "amount",
          "type": "uint256"
        },
        {
          "indexed": false,
          "internalType": "string",
          "name": "recipientDetails",
          "type": "string"
        }
      ],
      "name": "TransferReceived",
      "type": "event"
    },
    {
      "inputs": [
        {
          "internalType": "string",
          "name": "transferId",
          "type": "string"
        }
      ],
      "name": "getTransfer",
      "outputs": [
        {
          "components": [
            {
              "internalType": "address",
              "name": "from",
              "type": "address"
            },
            {
              "internalType": "address",
              "name": "stablecoin",
              "type": "address"
            },
            {
              "internalType": "uint256",
              "name": "amount",
              "type": "uint256"
            },
            {
              "internalType": "string",
              "name": "recipientDetails",
              "type": "string"
            },
            {
              "internalType": "uint256",
              "name": "timestamp",
              "type": "uint256"
            },
            {
              "internalType": "bool",
              "name": "processed",
              "type": "bool"
            }
          ],
          "internalType": "struct MockOffRampProvider.TransferInfo",
          "name": "",
          "type": "tuple"
        }
      ],
      "stateMutability": "view",
      "type": "function"
    },
    {
      "inputs": [
        {
          "internalType": "string",
          "name": "transferId",
          "type": "string"
        }
      ],
      "name": "isTransferProcessed",
      "outputs": [
        {
          "internalType": "bool",
          "name": "",
          "type": "bool"
        }
      ],
      "stateMutability": "view",
      "type": "function"
    },
    {
      "inputs": [],
      "name": "owner",
      "outputs": [
        {
          "internalType": "address",
          "name": "",
          "type": "address"
        }
      ],
      "stateMutability": "view",
      "type": "function"
    },
    {
      "inputs": [
        {
          "internalType": "string",
          "name": "transferId",
          "type": "string"
        }
      ],
      "name": "processTransfer",
      "outputs": [],
      "stateMutability": "nonpayable",
      "type": "function"
    },
    {
      "inputs": [
        {
          "internalType": "string",
          "name": "",
          "type": "string"
        }
      ],
      "name": "processedTransfers",
      "outputs": [
        {
          "internalType": "bool",
          "name": "",
          "type": "bool"
        }
      ],
      "stateMutability": "view",
      "type": "function"
    },
    {
      "inputs": [
        {
          "internalType": "address",
          "name": "from",
          "type": "address"
        },
        {
          "internalType": "address",
          "name": "stablecoin",
          "type": "address"
        },
        {
          "internalType": "uint256",
          "name": "amount",
          "type": "uint256"
        },
        {
          "internalType": "string",
          "name": "recipientDetails",
          "type": "string"
        }
      ],
      "name": "receiveTransfer",
      "outputs": [],
      "stateMutability": "nonpayable",
      "type": "function"
    },
    {
      "inputs": [],
      "name": "renounceOwnership",
      "outputs": [],
      "stateMutability": "nonpayable",
      "type": "function"
    },
    {
      "inputs": [
        {
          "internalType": "address",
          "name": "newOwner",
          "type": "address"
        }
      ],
      "name": "transferOwnership",
      "outputs": [],
      "stateMutability": "nonpayable",
      "type": "function"
    },
    {
      "inputs": [
        {
          "internalType": "string",
          "name": "",
          "type": "string"
        }
      ],
      "name": "transfers",
      "outputs": [
        {
          "internalType": "address",
          "name": "from",
          "type": "address"
        },
        {
          "internalType": "address",
          "name": "stablecoin",
          "type": "address"
        },
        {
          "internalType": "uint256",
          "name": "amount",
          "type": "uint256"
        },
        {
          "internalType": "string",
          "name": "recipientDetails",
          "type": "string"
        },
        {
          "internalType": "uint256",
          "name": "timestamp",
          "type": "uint256"
        },
        {
          "internalType": "bool",
          "name": "processed",
          "type": "bool"
        }
      ],
      "stateMutability": "view",
      "type": "function"
    },
    {
      "inputs": [
        {
          "internalType": "uint256",
          "name": "amount",
          "type": "uint256"
        },
        {
          "internalType": "address",
          "name": "to",
          "type": "address"
        }
      ],
      "name": "withdrawETH",
      "outputs": [],
      "stateMutability": "nonpayable",
      "type": "function"
    },
    {
      "inputs": [
        {
          "internalType": "address",
          "name": "token",
          "type": "address"
        },
        {
          "internalType": "uint256",
          "name": "amount",
          "type": "uint256"
        },
        {
          "internalType": "address",
          "name": "to",
          "type": "address"
        }
      ],
      "name": "withdrawTokens",
      "outputs": [],
      "stateMutability": "nonpayable",
      "type": "function"
    },
    {
      "stateMutability": "payable",
      "type": "receive"
    }
  ],
  "bytecode": "0x6080806040523461005b5760008054336001600160a01b0319821681178355916001600160a01b03909116907f8be0079c531659141344cd1fd0a4f28419497f9722a3daafe3b4186f6b6457e09080a361125e90816100618239f35b600080fdfe6080604052600436101561001b575b361561001957600080fd5b005b60003560e01c80630a340be414610cf657806317e0adea14610c9f57806336118b5214610c455780633d850bb414610a3a578063715018a6146109e15780637ec6cfca146108b35780637f885b05146103ce57806384a1c233146103265780638da5cb5b146102fd5780639bc5c509146101675763f2fde38b0361000e5734610162576020366003190112610162576100b2610e75565b6100ba610f80565b6001600160a01b0390811690811561010e57600054826bffffffffffffffffffffffff60a01b821617600055167f8be0079c531659141344cd1fd0a4f28419497f9722a3daafe3b4186f6b6457e0600080a3005b60405162461bcd60e51b815260206004820152602660248201527f4f776e61626c653a206e6577206f776e657220697320746865207a65726f206160448201526564647265737360d01b6064820152608490fd5b600080fd5b3461016257606036600319011261016257610180610e75565b6001600160a01b0360443581811692908390036101625761019f610f80565b1690604051906020928383019163a9059cbb60e01b83526024840152602435604484015260448352608083019183831067ffffffffffffffff8411176102e7576000809161025095856040526101f486610d3e565b8786527f5361666545524332303a206c6f772d6c6576656c2063616c6c206661696c656460a0820152519082855af13d156102df573d9161023483610d7c565b926102426040519485610d5a565b83523d60008785013e61118b565b80518281159182156102bf575b505090501561026857005b6084906040519062461bcd60e51b82526004820152602a60248201527f5361666545524332303a204552433230206f7065726174696f6e20646964206e6044820152691bdd081cdd58d8d9595960b21b6064820152fd5b83809293500103126101625781015180151581036101625780828461025d565b60609161118b565b634e487b7160e01b600052604160045260246000fd5b34610162576000366003190112610162576000546040516001600160a01b039091168152602090f35b346101625761034c602061033936610dcf565b8160405193828580945193849201610e0e565b8101600181520301902060018060a01b0380825416906001830154169160028101546103bd60405161038c816103858160038801610eea565b0382610d5a565b60ff60056004860154950154169260405196879687526020870152604086015260c0606086015260c0850190610e8b565b916080840152151560a08301520390f35b34610162576080366003190112610162576103e7610e75565b6103ef610e5f565b9060643567ffffffffffffffff811161016257610410903690600401610e31565b906001600160a01b0383811615610862578085161561080d57604435156107bc57821561076b57612a2360f11b9461044785611024565b6104f4602561045584611024565b926104616044356110cb565b9361046b426110cb565b90604051958693602085019d8e5261048d815180926020602289019101610e0e565b840191605f60f81b928360228201526104b0825180936020602385019101610e0e565b018260238201526104cb825180936020602485019101610e0e565b019060248201526104e58251809360208785019101610e0e565b01036005810184520182610d5a565b6040519061050182610d22565b83871682526020820197848416895261055060206040850192604435845261052a368b8b610d98565b9460608701958652426080880152600060a0880152604051938492839251928391610e0e565b8101600181520301902098858451166bffffffffffffffffffffffff60a01b90818c5416178b558660018c01925116908254161790555160028901555196875167ffffffffffffffff81116102e7576105ac6003830154610eb0565b98601f8a11610724575b87989950600097969750602090601f831160011461067e57600587959294847f49f02c5bd2adc97e9f11f8347a81f9cd1f5ea1ff7c3214078559123c6df009799b989560609a9760a095600092610673575b50508160011b916000199060031b1c19161760038201555b6080840151600482015501910151151560ff8019835416911617905560405195869460443586526040602087015281604087015286860137600084890186015216961694601f01601f19168101030190a3005b015190508f80610608565b979594939291906003830160005260206000209860005b601f198416811061070957508695936001847f49f02c5bd2adc97e9f11f8347a81f9cd1f5ea1ff7c3214078559123c6df009799c60a09560059560609d9c9a98601f198116106106f0575b505050811b016003820155610620565b015160001960f88460031b161c191690558f80806106e0565b828201518b556001909a01998b995060209283019201610695565b600383016000526020600020601f830160051c810160208410610764575b601f8c0160051c820181106107585750506105b6565b60008155600101610742565b5080610742565b60405162461bcd60e51b8152602060048201526024808201527f4d6f636b4f666652616d7050726f76696465723a20696e76616c69642064657460448201526361696c7360e01b6064820152608490fd5b60405162461bcd60e51b815260206004820152602360248201527f4d6f636b4f666652616d7050726f76696465723a20696e76616c696420616d6f6044820152621d5b9d60ea1b6064820152608490fd5b60405162461bcd60e51b815260206004820152602760248201527f4d6f636b4f666652616d7050726f76696465723a20696e76616c696420737461604482015266313632b1b7b4b760c91b6064820152608490fd5b60405162461bcd60e51b815260206004820152602360248201527f4d6f636b4f666652616d7050726f76696465723a20696e76616c69642073656e6044820152623232b960e91b6064820152608490fd5b34610162576020806003193601126101625760043567ffffffffffffffff8111610162576108e682913690600401610e31565b9190600060a06040516108f881610d22565b82815282858201528260408201526060808201528260808201520152826040519384928337810160018152030190206040519061093482610d22565b60018060a01b03928382541683526109ce84600184015416828501908152600284015460408601908152866040519261097b846109748160038b01610eea565b0385610d5a565b6060880193845260ff600560048901549860808b01998a520154169560a089019615158752604051998a99828b52511690890152511660408701525160608601525160c0608086015260e0850190610e8b565b915160a084015251151560c08301520390f35b34610162576000366003190112610162576109fa610f80565b600080546001600160a01b0319811682556001600160a01b03167f8be0079c531659141344cd1fd0a4f28419497f9722a3daafe3b4186f6b6457e08280a3005b34610162576020806003193601126101625760043567ffffffffffffffff811161016257610a6c903690600401610e31565b91610a75610f80565b8215610bf05760405183838237818185810160018152030190209160018060a01b038084541615610b9b576005840180549060ff8216610b3e5791610b39917faaac0d22645c9e9dafca4a9a7971968c29b6b8255a89f52fe24f81bee2f1435a959493600160ff1980931617905560016040518986823786818b810160028152030190209182541617905560018601541695600286015492816040519283928337810160008152039020946040805194859485528401526003604084019101610eea565b0390a3005b60405162461bcd60e51b815260048101869052602f60248201527f4d6f636b4f666652616d7050726f76696465723a207472616e7366657220616c60448201526e1c9958591e481c1c9bd8d95cdcd959608a1b6064820152608490fd5b60405162461bcd60e51b815260048101849052602760248201527f4d6f636b4f666652616d7050726f76696465723a207472616e73666572206e6f6044820152661d08199bdd5b9960ca1b6064820152608490fd5b6084906040519062461bcd60e51b82526004820152602860248201527f4d6f636b4f666652616d7050726f76696465723a20696e76616c6964207472616044820152671b9cd9995c88125160c21b6064820152fd5b34610162576040366003190112610162576000808080600435610c66610e5f565b610c6e610f80565b82908215610c95575b6001600160a01b031690f115610c8957005b6040513d6000823e3d90fd5b6108fc9150610c77565b346101625760203660031901126101625760043567ffffffffffffffff81116101625760ff6020610cd581933690600401610e31565b91908260405193849283378101600281520301902054166040519015158152f35b3461016257602060ff610d0c8261033936610dcf565b8101600281520301902054166040519015158152f35b60c0810190811067ffffffffffffffff8211176102e757604052565b6040810190811067ffffffffffffffff8211176102e757604052565b90601f8019910116810190811067ffffffffffffffff8211176102e757604052565b67ffffffffffffffff81116102e757601f01601f191660200190565b929192610da482610d7c565b91610db26040519384610d5a565b829481845281830111610162578281602093846000960137010152565b6020600319820112610162576004359067ffffffffffffffff8211610162578060238301121561016257816024610e0b93600401359101610d98565b90565b60005b838110610e215750506000910152565b8181015183820152602001610e11565b9181601f840112156101625782359167ffffffffffffffff8311610162576020838186019501011161016257565b602435906001600160a01b038216820361016257565b600435906001600160a01b038216820361016257565b90602091610ea481518092818552858086019101610e0e565b601f01601f1916010190565b90600182811c92168015610ee0575b6020831014610eca57565b634e487b7160e01b600052602260045260246000fd5b91607f1691610ebf565b9060009291805491610efb83610eb0565b918282526001938481169081600014610f5d5750600114610f1d575b50505050565b90919394506000526020928360002092846000945b838610610f49575050505001019038808080610f17565b805485870183015294019385908201610f32565b9294505050602093945060ff191683830152151560051b01019038808080610f17565b6000546001600160a01b03163303610f9457565b606460405162461bcd60e51b815260206004820152602060248201527f4f776e61626c653a2063616c6c6572206973206e6f7420746865206f776e65726044820152fd5b6000198114610fe75760010190565b634e487b7160e01b600052601160045260246000fd5b90815181101561100e570160200190565b634e487b7160e01b600052603260045260246000fd5b6040519061103182610d3e565b60148083526020368185013760005b81811061104d5750505090565b601390808203918211610fe757600382901b916001600160fd1b03811603610fe75760ff8211610fe7576001821b156110b5576110b0916001600160a01b038516901c60f81b6001600160f81b03191660001a6110aa8287610ffd565b53610fd8565b611040565b634e487b7160e01b600052601260045260246000fd5b801561116d5780816000925b61115757506110e582610d7c565b916110f36040519384610d5a565b80835281601f1961110383610d7c565b013660208601375b61111457505090565b6000198101908111610fe7578091600a9160308383068101809111610fe75760f81b6001600160f81b03191660001a9061114e9086610ffd565b5304908161110b565b9091611164600a91610fd8565b929104806110d7565b5060405161117a81610d3e565b60018152600360fc1b602082015290565b919290156111ed575081511561119f575090565b3b156111a85790565b60405162461bcd60e51b815260206004820152601d60248201527f416464726573733a2063616c6c20746f206e6f6e2d636f6e74726163740000006044820152606490fd5b8251909150156112005750805190602001fd5b60405162461bcd60e51b815260206004820152908190611224906024830190610e8b565b0390fdfea2646970667358221220899da44b276e36d70499d9477fa59e91ca82e80b9e5a47b0219963f6d1afa00964736f6c63430008130033",
  "linkReferences": {},
  "deployedLinkReferences": {}
}