{
  "_format": "hh-sol-artifact-1",
  "contractName": "MockTreasury",
  "sourceName": "contracts/mocks/MockTreasury.sol",
  "abi": [
    {
      "inputs": [],
      "stateMutability": "nonpayable",
      "type": "constructor"
    },
    {
      "anonymous": false,
      "inputs": [
        {
          "indexed": true,
          "internalType": "address",
          "name": "previousOwner",
          "type": "address"
        },
        {
          "indexed": true,
          "internalType": "address",
          "name": "newOwner",
          "type": "address"
        }
      ],
      "name": "OwnershipTransferred",
      "type": "event"
    },
    {
      "anonymous": false,
      "inputs": [
        {
          "indexed": false,
          "internalType": "address",
          "name": "token",
          "type": "address"
        },
        {
          "indexed": false,
          "internalType": "uint256",
          "name": "amount",
          "type": "uint256"
        },
        {
          "indexed": false,
          "internalType": "address",
          "name": "from",
          "type": "address"
        }
      ],
      "name": "TokensReceived",
      "type": "event"
    },
    {
      "anonymous": false,
      "inputs": [
        {
          "indexed": false,
          "internalType": "address",
          "name": "token",
          "type": "address"
        },
        {
          "indexed": false,
          "internalType": "uint256",
          "name": "amount",
          "type": "uint256"
        },
        {
          "indexed": false,
          "internalType": "address",
          "name": "to",
          "type": "address"
        }
      ],
      "name": "TokensWithdrawn",
      "type": "event"
    },
    {
      "inputs": [],
      "name": "owner",
      "outputs": [
        {
          "internalType": "address",
          "name": "",
          "type": "address"
        }
      ],
      "stateMutability": "view",
      "type": "function"
    },
    {
      "inputs": [
        {
          "internalType": "address",
          "name": "token",
          "type": "address"
        },
        {
          "internalType": "uint256",
          "name": "amount",
          "type": "uint256"
        },
        {
          "internalType": "address",
          "name": "from",
          "type": "address"
        }
      ],
      "name": "receiveTokens",
      "outputs": [],
      "stateMutability": "nonpayable",
      "type": "function"
    },
    {
      "inputs": [],
      "name": "renounceOwnership",
      "outputs": [],
      "stateMutability": "nonpayable",
      "type": "function"
    },
    {
      "inputs": [
        {
          "internalType": "address",
          "name": "newOwner",
          "type": "address"
        }
      ],
      "name": "transferOwnership",
      "outputs": [],
      "stateMutability": "nonpayable",
      "type": "function"
    },
    {
      "inputs": [
        {
          "internalType": "uint256",
          "name": "amount",
          "type": "uint256"
        },
        {
          "internalType": "address",
          "name": "to",
          "type": "address"
        }
      ],
      "name": "withdrawETH",
      "outputs": [],
      "stateMutability": "nonpayable",
      "type": "function"
    },
    {
      "inputs": [
        {
          "internalType": "address",
          "name": "token",
          "type": "address"
        },
        {
          "internalType": "uint256",
          "name": "amount",
          "type": "uint256"
        },
        {
          "internalType": "address",
          "name": "to",
          "type": "address"
        }
      ],
      "name": "withdrawTokens",
      "outputs": [],
      "stateMutability": "nonpayable",
      "type": "function"
    },
    {
      "stateMutability": "payable",
      "type": "receive"
    }
  ],
  "bytecode": "0x6080806040523461005b5760008054336001600160a01b0319821681178355916001600160a01b03909116907f8be0079c531659141344cd1fd0a4f28419497f9722a3daafe3b4186f6b6457e09080a361061890816100618239f35b600080fdfe60406080815260049081361015610020575b5050361561001e57600080fd5b005b600091823560e01c9083826336118b521461042157508163715018a6146103c45781638da5cb5b1461039c5781639bc5c509146101a1578163f2fde38b146100d2575063f6b5a2e30361001157346100ce576100c87fbb0d4825eab33d0c35a773ca528155086ec67cbd01419492cf12ae0eba7190cd916100a03661047d565b92516001600160a01b0392831681526020810191909152911660408201529081906060820190565b0390a180f35b5080fd5b9190503461019d57602036600319011261019d576001600160a01b03823581811693919290849003610199576101066104b6565b831561014757505082546001600160a01b0319811683178455167f8be0079c531659141344cd1fd0a4f28419497f9722a3daafe3b4186f6b6457e08380a380f35b906020608492519162461bcd60e51b8352820152602660248201527f4f776e61626c653a206e6577206f776e657220697320746865207a65726f206160448201526564647265737360d01b6064820152fd5b8480fd5b8280fd5b839150346100ce576101b23661047d565b90926101bc6104b6565b60018060a01b038084168751906020918281019163a9059cbb60e01b835260249487168583015288604483015260448252608082019267ffffffffffffffff928085108486111761037b5760c0810185811085821117610369578d528585527f5361666545524332303a206c6f772d6c6576656c2063616c6c206661696c656460a0820152518b9182919082855af1903d1561038d573d83811161037b578c5193601f8201601f19908116603f0116850190811185821017610369578d52835261028e939291903d8c8785013e61050e565b8051828115918215610345575b50509050156102f257505094516001600160a01b03928316815260208101939093521660408201529091507f892212fefec48d5ab9985161b9e69f149494b9970bd1981c3dbf712d63f0d59c9080606081016100c8565b875162461bcd60e51b815292830152602a908201527f5361666545524332303a204552433230206f7065726174696f6e20646964206e6044820152691bdd081cdd58d8d9595960b21b6064820152608490fd5b83809293500103126103655781015180151581036103655780828b61029b565b8780fd5b634e487b7160e01b8d5260418952878dfd5b634e487b7160e01b8c5260418852868cfd5b9061028e93925060609161050e565b5050346100ce57816003193601126100ce57905490516001600160a01b039091168152602090f35b833461041e578060031936011261041e576103dd6104b6565b80546001600160a01b03198116825581906001600160a01b03167f8be0079c531659141344cd1fd0a4f28419497f9722a3daafe3b4186f6b6457e08280a380f35b80fd5b9150346100ce57826003193601126100ce576024356001600160a01b03811691359082900361019d578280929181926104586104b6565b828215610474575bf11561046a575080f35b51903d90823e3d90fd5b506108fc610460565b60609060031901126104b1576001600160a01b0360043581811681036104b157916024359160443590811681036104b15790565b600080fd5b6000546001600160a01b031633036104ca57565b606460405162461bcd60e51b815260206004820152602060248201527f4f776e61626c653a2063616c6c6572206973206e6f7420746865206f776e65726044820152fd5b919290156105705750815115610522575090565b3b1561052b5790565b60405162461bcd60e51b815260206004820152601d60248201527f416464726573733a2063616c6c20746f206e6f6e2d636f6e74726163740000006044820152606490fd5b8251909150156105835750805190602001fd5b6040519062461bcd60e51b82528160208060048301528251908160248401526000935b8285106105c9575050604492506000838284010152601f80199101168101030190fd5b84810182015186860160440152938101938593506105a656fea2646970667358221220aa13dbe40e5f664944408b1a6dbdae8339a71c2b9162ce9d53cd22347da6f5ad64736f6c63430008130033",
  "linkReferences": {},
  "deployedLinkReferences": {}
}